:020000040800F2
:10000000002000204D2D0008E11B0008E31B000824
:1000100000000000000000000000000000000000E0
:10002000000000000000000000000000E51B0008C8
:100030000000000000000000E71B0008E91B0008AA
:100040009D2D0008000000009D2D00089D2D00083A
:100050009D2D00089D2D00089D2D00089D2D000858
:10006000000000009D2D00089D2D00089D2D00081A
:100070009D2D0008F11B00089D2D000800000000C8
:100080009D2D00089D2D0008000000009D2D0008FA
:100090009D2D00089D2D00089D2D00089D2D000818
:1000A0009D2D00089D2D00089D2D00089D2D000808
:1000B0009D2D00080000000000000000000000006E
:1000C00010B5064C2378002B07D1054B002B02D02E
:1000D000044800E000BF0123237010BD0C00002085
:1000E0000000000044410008044B10B5002B03D071
:1000F0000349044800E000BF10BDC04600000000F6
:100100001000002044410008002243088B4274D3B1
:1001100003098B425FD3030A8B4244D3030B8B4208
:1001200028D3030C8B420DD3FF22090212BA030C11
:100130008B4202D31212090265D0030B8B4219D3F2
:1001400000E0090AC30B8B4201D3CB03C01A524112
:10015000830B8B4201D38B03C01A5241430B8B425A
:1001600001D34B03C01A5241030B8B4201D30B0343
:10017000C01A5241C30A8B4201D3CB02C01A52416A
:10018000830A8B4201D38B02C01A5241430A8B422D
:1001900001D34B02C01A5241030A8B4201D30B0216
:1001A000C01A5241CDD2C3098B4201D3CB01C01A30
:1001B000524183098B4201D38B01C01A524143093A
:1001C0008B4201D34B01C01A524103098B4201D328
:1001D0000B01C01A5241C3088B4201D3CB00C01A95
:1001E000524183088B4201D38B00C01A524143080D
:1001F0008B4201D34B00C01A5241411A00D2014632
:10020000524110467047FFE701B5002000F0F0F8BA
:1002100002BDC0460029F7D076E7704703460B437E
:100220007FD4002243088B4274D303098B425FD3EF
:10023000030A8B4244D3030B8B4228D3030C8B421B
:100240000DD3FF22090212BA030C8B4202D3121201
:10025000090265D0030B8B4219D300E0090AC30BD6
:100260008B4201D3CB03C01A5241830B8B4201D383
:100270008B03C01A5241430B8B4201D34B03C01A6C
:100280005241030B8B4201D30B03C01A5241C30AE4
:100290008B4201D3CB02C01A5241830A8B4201D355
:1002A0008B02C01A5241430A8B4201D34B02C01A3F
:1002B0005241030A8B4201D30B02C01A5241CDD2E4
:1002C000C3098B4201D3CB01C01A524183098B422F
:1002D00001D38B01C01A524143098B4201D34B0118
:1002E000C01A524103098B4201D30B01C01A52417B
:1002F000C3088B4201D3CB00C01A524183088B4202
:1003000001D38B00C01A524143088B4201D34B00EA
:10031000C01A5241411A00D201465241104670475C
:100320005DE0CA0F00D04942031000D34042534061
:1003300000229C4603098B422DD3030A8B4212D321
:10034000FC22890112BA030A8B420CD38901921153
:100350008B4208D3890192118B4204D389013AD090
:10036000921100E08909C3098B4201D3CB01C01A65
:10037000524183098B4201D38B01C01A5241430978
:100380008B4201D34B01C01A524103098B4201D366
:100390000B01C01A5241C3088B4201D3CB00C01AD3
:1003A000524183088B4201D38B00C01A5241D9D2EB
:1003B00043088B4201D34B00C01A5241411A00D26C
:1003C0000146634652415B10104601D34042002B68
:1003D00000D54942704763465B1000D3404201B5E7
:1003E000002000F005F802BD0029F8D016E770479C
:1003F0007047C0468446100062468C46190063462A
:1004000000E0C0461FB500F017FC002801D4002111
:10041000C8421FBD10B500F067FB4042013010BD5F
:1004200010B500F009FC002801DB002010BD012000
:1004300010BDC04610B500F0FFFB002801DD002014
:1004400010BD012010BDC04610B500F08FFB002884
:1004500001DC002010BD012010BDC04610B500F029
:1004600085FB002801DA002010BD012010BDC04628
:10047000F0B54F464646D6460D000400C0B51F00F5
:1004800011002803620F400A10437A00520DE30066
:100490003C039146640AFA0F4F0F6E0027439246C1
:1004A000B846760DED0FC900954200D199E04C4653
:1004B000341BA446002C00DC7CE04A46002A00D114
:1004C000B8E0C54A964200D11CE180223C001204EB
:1004D0001443A0466246382A00DD61E11F2A00DD90
:1004E000CCE164462022121B444694400F00A146F2
:1004F00064469140E7404C464A1E91413C43424687
:1005000021436446E240801A5C1AA3429B415F4249
:10051000C71B3B0200D4D0E07F027F0A002F00D12E
:10052000FFE0380001F050FA0100083920232200D2
:100530005B1A8F40DA408C401743B14200DAFFE08B
:10054000891B4B1C1F2B00DDA8E020223900D21A8A
:10055000200094409140D840621E9441DF40002624
:1005600001430C43630709D00F232340042B05D01C
:10057000231DA342A44164423F191C003B0200D446
:100580009EE0954B01369E4200D1B7E0934AE408C5
:1005900017407B0771057F0223433F0B4A0D12056D
:1005A0003A43ED072A4318001100E0BCBA46B146B1
:1005B000A846F0BD002C4BD04C46A41BA446002EF0
:1005C00000D023E104001C4300D1AFE16246541E79
:1005D000012A00D115E2804DAC4500D1C8E1A44606
:1005E0001BE14A46B21A9446002A00DCACE04A46B7
:1005F000002A43D0784A964200D1AFE180223C00E5
:1006000012041443A0466246382A67DC1F2A00DC25
:100610005FE14746203AD7406246202A05D064462B
:100620004022121B4446944021434A1E91410C0033
:100630003C4357E03A000A4300D105E12200013A69
:10064000012C00D182E1644CA4455BD0944641E783
:10065000634C771C274200D0C4E004001C43002EEA
:1006600000D069E1002C00D1BFE144460C4300D02A
:10067000D0E14207DB081343C00829E03A000A43EF
:1006800000D170E162466446013A012C00D1E0E0FD
:10069000514CA44500D161E19446B4E73A001F39BA
:1006A000CA401100202B03D04022D31A9F403C4364
:1006B000631E9C41002700260C43630700D053E7CC
:1006C000B446E4087B072343F808434A94451DD009
:1006D0006246070352053F0B520D60E744460C4348
:1006E000621E9441E4189C429B415F423F183B02CA
:1006F000E3D5394B01369E4200D0B5E032000027E9
:1007000000234CE74207DB081343C0081A000243EA
:1007100000D1E1E180273F0307433F032E4A3F0B0F
:100720003DE7200001F050F9010018311F2900DCDD
:10073000FCE60838844027000024B14200DBFFE6D5
:10074000264A761A17400DE7002A2FD04A46921BF8
:100750009446002E00D1ADE01F4A914500D10FE133
:100760008022120410436246382A00DD0FE11F2A5E
:1007700000DD80E1644620221E00121B6746040053
:1007800093409440FE405A1E9341F84034431C432A
:10079000804464188C42BF417F424E464744A6E7DE
:1007A00042460A4311004A1E9141ADE60C4C721CB0
:1007B000224200D0A1E002001A43002E00D0FAE04D
:1007C000002A00D145E13A000A4300D046E1420741
:1007D000DB081343C0087BE7FF070000FFFF7FFF34
:1007E000FE07000047465C1AC21BA342BF417F427E
:1007F000B94617004A46BF1A3A0200D58DE02300D9
:100800003B4300D08AE60020002561E7B44CA145B7
:1008100000D1ADE08024240420436446382C3DDC24
:1008200062461F2C00DDB7E020251E002D1B0400B2
:10083000AB40AC40D640D04042465D1EAB41344355
:10084000121A904623432CE04207DB081343C008EA
:100850003BE75C189C429B4140445B42C718012621
:100860003B0200D429E702269E4A63081740012272
:1008700014401C43FB071C437F0873E64446203AA0
:10088000D4406246202A05D067464022D21B474604
:10089000974039434A1E9141214335E60343581E90
:1008A0008341CC1AA142BF4143467F4255464E4642
:1008B000DF1B2EE602001A4300D1BDE0624664460B
:1008C000013A012C00D1E5E0854CA44558D094466E
:1008D00049E764462022121B444694400F00A1467B
:1008E00064469140E7404C464A1E91413C43424693
:1008F0000C436146CA408018F4E6794CA24200D10C
:10090000FDE6591899429B4140445F42C719FC07D4
:10091000490816000C437F08CFE6CC1AA142BF411C
:1009200043467F42181A5546C71BF7E5C9087B079F
:1009300055460B43F808C8E6002C00D081E043463A
:100940000B4315D1802000250003E3E65C1AA34287
:100950009B41C71B5B420126FF1ADAE54207DB0811
:100960001343C008D2E64207DB081343C008ACE6D5
:1009700043464246C9085B0755460B43D008C5E6C7
:10098000434642465B07C9080B43D008BEE6034313
:100990001C00631E9C41FCE60200203CE240140067
:1009A0006246202A03D04025AD1AA8400343581EB2
:1009B0008341234375E7002AE2D03A000A43CDD0B1
:1009C0004207DB0813438022C0081203104206D0FE
:1009D000FC08144203D12000CB087A0713435A0FB6
:1009E000DB005207DB08134390E643460B4300D17C
:1009F00009E743464246C9085B0755460B43D00802
:100A000066E6CC1AA14289413F1A49425546012661
:100A10007F1A7EE542465C1A871AA34292415242EF
:100A2000BF1A3A023DD5CC1AA142894143464942F8
:100A30001F1A55467F1A95E57B07C9080B43F8082E
:100A400043E64446DB080C4330D142071343C00859
:100A50005CE67B07C9080B43F80839E65C189C4242
:100A60009B4140445B42C7183B0200D425E61D4B26
:100A700001261F4021E60400203AD4406246202A85
:100A800004D040226646921B904003435A1E934175
:100A90001C437EE65C188C42894140444942471819
:100AA000DDE623003B4300D1ADE606E644072343E1
:100AB0008024C0082403204208D04246D60826429B
:100AC00004D155463000CB0851070B435A0FDB00C9
:100AD000DB085207134319E60023014A1F005EE5B5
:100AE000FF070000FFFF7FFFF0B54E464546DE469C
:100AF00057469046E0B517001A03120B05008446CE
:100B000019480E034C0091465A00DB0F9B46360BEA
:100B1000640DC90F520D844219D0824210D00120B9
:100B200094420ED14E450CD10120C44509D15945FE
:100B300017D0002C05D130002843431E984100E017
:100B40000120F0BCBB46B246A946A046F0BD33002A
:100B500001202B43F5D1A242F3D14B463B43F0D1C8
:100B6000E2E70020EDE7C046FF070000F0B547468A
:100B7000CE460400180016001B031B0B2D4D4A0027
:100B8000994680B543000F03A446B0463F0B520D73
:100B9000C90F5B0DC00FAA4221D0AB4213D0002A6F
:100BA00022D13C43002B02D14D462E4322D0002CB3
:100BB00010D0814222D00220013908400138C0BC47
:100BC000B946B046F0BD4D462E4329D1002AF0D19A
:100BD0003C43EED10028F2D101204042EFE73D0036
:100BE00025431DD19342EED0002BE2D14C46264343
:100BF000DFD1E0E70020002CE1D0DCE79A420ADCFC
:100C0000E8DB4F45D7D80ED000204F45D7D200297A
:100C1000E2D00800D3E74342584140000138CEE714
:100C200002204042CBE7C445C5D80020C445C6D207
:100C3000EDE7C046FF070000F0B54746CE4604008A
:100C4000180016001B031B0B2C4D4A00994680B55B
:100C500043000F03A446B0463F0B520DC90F5B0D76
:100C6000C00FAA420DD0AB4210D0002A27D13C437E
:100C7000002B11D14D462E430ED10020002C15D053
:100C80000EE03D00254310D1934218D14D462E432E
:100C90000BD1002A02D13C43002C0BD0814214D04E
:100CA000022001390840013800E00220C0BCB946EA
:100CB000B046F0BD0028F9D101204042F6E7002BF4
:100CC000ECD14C462643E9D1EAE79A4204DD43429F
:100CD000584140000138E9E79A42EBDB4F45DFD845
:100CE00006D000204F45E1D20029E5D00800DDE71D
:100CF000C445D5D80020C445D8D2F5E7FF07000089
:100D0000F0B557464E464546DE46E0B598460C03DC
:100D10004B000600924687B0240B5B0DCF0F002BD3
:100D200000D15CE1D94A934200D175E1420FE40061
:100D30001443802212041443D54AC50094466344E8
:100D40000093002399469B46434642461E03D20F1A
:100D50005B0050469046360B5B0D00D120E1CB4A3C
:100D6000934200D162E1CA49420F8C460099634424
:100D7000F6008C46164380229C44120463461643B8
:100D8000C200002000930099434601318C46494639
:100D90007B4001930F2926D8BE4B890059588F46B6
:100DA000434601933400150083465B46022B16D060
:100DB000032B00D103E2012B00D0CDE00022002460
:100DC0000025019B12052243DB071A43280011006E
:100DD00007B0F0BCBB46B246A946A046F0BD002411
:100DE0000025AA4AEDE7280C2D042D0C2B00110C30
:100DF0001204120C5343984613002F0043439946A4
:100E00004F434F44BB4647460B003F0CBA46434353
:100E1000DA440293D14504D980277F02B9464B4476
:100E2000029353461B0C9B4653461F0443461B0428
:100E30001B0C98463B0043440493330C3604360C99
:100E40009846330043439946434643432F009A460E
:100E5000434677435D43380C4D444519A94503D9B2
:100E600080235B029946CA443F04280C3F0C2D04A2
:100E7000ED19270C2404240C0300200050437A436E
:100E800091463A0053440593030C9A464A43614302
:100E900049445144AB44894503D980235B029946B8
:100EA0004A4400040B0C000C090409182000994660
:100EB000434670435C437E435F43030C9846A4194A
:100EC00044444A440397A64204D980235B029846CF
:100ED000474403972304029E9A46059B5E44984626
:100EE000AE42AD4176188E4289410004000C504458
:100EF00040446D424719B846934649428946C34427
:100F0000D94498428041A845AD41934592418945D5
:100F100089416D4240422843240C524249420A43CF
:100F2000039B00198018C7184B46DC0D049B750203
:100F30001D436A1E95414B46F60D7F0235435A020A
:100F40003C431543FB0100D41CE101216A080D401C
:100F50001543E207154364084F496144002900DC4A
:100F6000B0E06B0709D00F222A40042A05D02A1DC1
:100F7000AA42AD416D4264191500E30104D58021F8
:100F8000464AC90014406144454A914200DD26E7C3
:100F90006207ED08640249051543240B4A0D10E76A
:100FA0005246324300D17FE0002E00D1DCE0300019
:100FB00000F00AFD02000B3A1D2301009B1A524665
:100FC0000839DA408E40164352468A40009B354924
:100FD000181A03008C46634400200093D3E62500D2
:100FE00005434AD0002C00D1B0E0200000F0ECFC1A
:100FF000010002000B391D2310005B1A310035007F
:1010000008388440D94085400C432648831A009311
:10101000002399469B4697E60500254326D10822E2
:1010200000930223002491469B468DE65246009B86
:10103000324310D1154900268C466344494600933B
:1010400002231943894602209DE65B460197022B45
:1010500000D0ADE6C3E60D4A0320944663444A46F9
:10106000009303231A43914652468CE60C220093C8
:101070000323050091469B4666E604239946002318
:101080000093013300249B465EE6C046FF07000044
:1010900001FCFFFF60410008FF030000FFFFFFFEAF
:1010A000FE0700000DFCFFFF494601231943894656
:1010B0000026012067E6002380240025434A01938F
:1010C00024037EE60120401A382800DD76E61F283A
:1010D0005BDD1F2223005242511ACB401900202809
:1010E00003D03B4A6244944025436A1E95412A003E
:1010F0000A4307210D000024154011425BD00F2147
:1011000000241140042953D0111D914292415242B2
:10111000A4180A0023024BD501220024002550E622
:1011200080231B031C4209D01E4207D133431C03FA
:1011300043461500240B254A019342E68022120300
:1011400014432403214A240B01973AE600F03CFCA7
:1011500001000200153120321C2900DC4BE734006D
:1011600008380025844050E700F02EFC03001A00E8
:10117000153220301C2A00DC1EE75646083B0022B0
:101180009E4023E7009B9C46E6E61249220061440C
:101190002E008D408A40C640691E8D4132432A434D
:1011A000C4405307B6D00F2111400429ACD1B1E798
:1011B00065076402240BD2081543002201E6802251
:1011C000120314432403014A240BFAE5FF0700002D
:1011D0003E0400001E040000F8B557464E46454642
:1011E000DE46E0B51E0017004A000B03520D5B0AF5
:1011F0009046420F1A43CD0FCD4C3103C3009446A5
:1012000070007A0F490AFF009A46B946400DF60F62
:101210001143A04200D1B1E001225640B346B5428D
:1012200000D188E04246121A002A00DCAEE0002815
:1012300000D1C1E0BE48804500D151E180200004CA
:101240000143382A00DD7BE11F2A00DDEEE120208A
:101250003E00801A0C00D640D14087406246844050
:10126000521A781E8741944634432743DC1BA3421D
:101270009B4162465B42D31A99464B461B0200D4FF
:1012800018E14B465802430A99464B46002B00D1C1
:1012900037E1484600F098FB01000839202322007E
:1012A00048465B1ADA4088408C40434610438845E4
:1012B00000DD36E1C91A4B1C1F2B00DDEAE02022BD
:1012C0002600D21A01009440DE40D840002391400D
:1012D000621E94418146984631430C43630709D00E
:1012E0000F232340042B05D0231DA342A4416442B5
:1012F000A1441C004B461B0200D4DEE041468C4B4F
:101300000131994200D1E7E04B468A48E4080340A6
:10131000180049055B07400223434A0D040B1205E0
:10132000ED0722432A4318001100F0BCBB46B24629
:10133000A946A046F8BD4246121A002A52DD0028EE
:1013400000D19CE0A04500D1CAE080200004014308
:10135000382A00DD49E11F2A00DC97E110000E0069
:101360002038C640202A04D04020821A91400F43E2
:10137000B9464C46621E944134433AE10A003A436E
:1013800028D0B346B5422BD06B4A4244002A5DD0E8
:1013900042464446821A002C00D0F5E065461D43C3
:1013A00000D19CE1551E012A00D1FBE1604CA24214
:1013B00000D1BDE12A00F0E00800384300D1C3E0CD
:1013C000501E012A00D1A8E1594CA24200D187E069
:1013D000020036E701225640B346B54200D021E76D
:1013E000554A4244002A00D1B5E042464446821A9A
:1013F000002C00D138E14E4EB04200D1DEE1802613
:10140000644636043443A446382A00DD96E11F2A98
:1014100000DD24E22026B41AA24664465646B440B3
:10142000A1461C004E46D440264334005646B340E5
:101430005E1EB3411C436346D340C918E419BC4245
:10144000BF417F42B94680468944D8E040463B4C84
:101450000130204200D0B4E04046002800D044E1F2
:101460006046184300D190E10800384300D0AAE15B
:101470006146DB0849070B436146CC0827E00800BA
:10148000384361D0501E012A00D139E1A24227D051
:1014900002005DE702001F39CA401100202B03D073
:1014A0004022D31A98400443631E9C41002399466E
:1014B00098460C43630700D012E74B464A46E408BF
:1014C0005B072343D408424619498A420ED02403BD
:1014D0005205240B520D22E70A00002400231EE7C8
:1014E000DB086246520713436246D4081A002243BF
:1014F00000D1FCE180221203144324030C4A240B84
:101500000DE7200000F060FA010018311F2900DC0F
:10151000C4E608388440434620000024884500DCA7
:10152000C8E6044A5B1A104098468146D6E6C04693
:10153000FF070000FFFF7FFF01F8FFFFFE0700002D
:101540000F437A1E974191E66146DB0849070B433A
:101550006146CC08B8E74046D34C0130204200D069
:10156000A2E04046002800D001E16046184300D1C7
:101570005EE10800384300D05FE16146DB084907BF
:101580000B436146CC08A2E7C84DA84200D1CFE08A
:10159000802564462D042C43A446382A56DC1F2A95
:1015A00000DDD1E020251E00AD1A6446AB40AC4002
:1015B000D6405D1EAB41344323436446D440091BEF
:1015C00049E06046DC1B461AA34280414042814606
:1015D00030004E46801B8146000276D44B462343A2
:1015E00000D052E60024002571E739430C00621E4A
:1015F0009441E4189C429B415B42634499464B46AC
:101600001B0200D456E701239C46A84BE0449845B2
:1016100038D04B46A6480122034018006308144006
:101620001C43C3071C434308994657E610000E00AD
:101630002038C640202A04D04020821A91400F430F
:10164000B9464F467A1E974137430FE662461A4322
:1016500013005A1E9341FC1AA742BF417F42CB1B85
:1016600099465D46804608E666461E4300D1BEE0C8
:10167000561E012A00D109E18C4CA24200D119E189
:101680003200C1E642460024002348E620200C0038
:10169000801A3E0087408440D640781E8741D14062
:1016A00034433C438C44A4E7804A904200D1E9E0B3
:1016B000DF199F429B4161445B42C918CC077F08F8
:1016C0004B08994680463C43F4E6FC1AA742BF41CA
:1016D00063467F42C91ACB1B99465D46D5E5FF0894
:1016E0004B075D463B43CC08EEE662461A4300D00A
:1016F00082E00B003B431BD1802400252403F9E644
:10170000DC199C429B41614489465B4299444B46AB
:101710001B0244D401239846CCE6DC1B6246A3425C
:101720009B41511A5B42CB1A994601239846A4E586
:10173000FF084B075D463B43CC08D7E662461A4399
:101740001400631E9C4179E615006446203DEC4080
:10175000A046202A05D040256446AA1A9440234377
:101760009A465446631E9C414346234373E76246B0
:101770001A4323D00A003A4300D0A0E06246DB08B7
:10178000520713436246D408B0E60B003B4300D136
:1017900028E7FF084B075D463B43CC0897E602234A
:1017A000984636E7FC1AA742BF4163467F42C91AF2
:1017B000CB1B994601235D4698465EE54B07FF0823
:1017C0003B43CC0892E6DC1B6046A342B641401A7C
:1017D0007642801B8146000260D5FC1AA742BF41B9
:1017E00063467F42C91ACB1B99465D4676E5FF08E2
:1017F0004B073B43CC0867E60A00DB083A4300D1BD
:101800006FE66246520713436246D40880221203F1
:10181000144207D0C808104204D15D460400FB08FA
:1018200049070B435A0FDB00DB08520713435DE601
:101830004B07FF083B43CC0849E6DC199C429B411F
:10184000614489465B4299444B461B0200D431E611
:101850004A46174B1A400123914698462AE616003D
:101860006446203EF440A046202A05D04026644627
:10187000B21A944023439A465446631E9C41434601
:101880001C43DBE502000024002348E5DC19BC42D0
:10189000BF41614489467F42B94438E74B46234300
:1018A00000D19FE606E6C046FE070000FF070000E5
:1018B000FFFF7FFFFF084B073B43CC0816E662465D
:1018C000DB08520713436246D408802212031442F5
:1018D00007D0C808104204D15D460400FB08490740
:1018E0000B435A0FDB005207DB081343FEE50023CE
:1018F000014A1C0013E5C046FF0700000A0030B58E
:10190000134C530009030500090B00205B0DD20F97
:10191000A34204DD0F48834202DD0F4BD01830BDD7
:101920008020400301430D48C01A1F2808DD0C48E1
:10193000C31AD9400B005842002AF0D11800EEE734
:10194000084CC540A446634499400B002B43F2E782
:10195000FE0300001D040000FFFFFF7F33040000B2
:1019600013040000EDFBFFFF70B5002816D0C3176D
:10197000C5185D40C40F280000F026F8114A121A5D
:101980000A2816DC03002E0015339E400B23181A7C
:10199000C54052052D032D0B530D03E000240023F9
:1019A000002500261B052B43E407234330001900C4
:1019B00070BD0B38854052052D0300262D0B530DAD
:1019C000F0E7C0461E0400001C2101231B049842BE
:1019D00001D3000C10391B0A984201D3000A0839C0
:1019E0001B09984201D30009043902A2105C401877
:1019F0007047C0460403020201010101000000001B
:101A00000000000030B587B01422002101A801F0C9
:101A1000EBF90F4A5169802000030143516153697A
:101A200003400093009B8025AD010A4C0022290051
:101A3000200000F067FF0195012302930023039328
:101A4000049301A9200000F097FE07B030BDC04606
:101A5000001002400008004872B6FEE700B587B0EB
:101A60001022002102A801F0BFF9082200216846D7
:101A700001F0BAF91548164B0360002343608360F8
:101A8000144AC26080225200026143618033836144
:101A900000F018FA002813D180235B01029302A9F9
:101AA0000A4800F047FA00280CD100230093019364
:101AB0006946064800F0C2FA002805D107B000BD0B
:101AC000FFF7CAFFFFF7C8FFFFF7C6FF2800002097
:101AD000002C0140D204000000B591B0302200215A
:101AE00004A801F081F910220021684601F07CF978
:101AF00002230493012207920F3208920C93A02331
:101B00009B030E9304A800F0CDFA00280ED1072302
:101B10000093053B01930023029303930121684640
:101B200000F046FD002803D111B000BDFFF794FF7F
:101B3000FFF792FF70B500F0FDFDFFF7CDFFFFF757
:101B400061FFFFF78BFF01F0D9F8002424E060006B
:101B5000FFF70AFF1B4A1C4BFFF7D2F80022FE23B7
:101B60009B05FFF7CDF801F047F90022174BFFF76F
:101B7000C7F80022164BFFF7C3F8FFF7BFFEA1001E
:101B8000144BC8502204121BD0177F2303409B180C
:101B9000DB11114A8B5001347F2CD8DD00250CE07D
:101BA000A3000C4A98580C4A995889B280B201F0A7
:101BB0009BF801347F2CF3DD0135084B9D42EDDCB1
:101BC0000024F7E7182D4454FB210940E0FFEF40C3
:101BD0000000E03F7000002070020020FEFF0000C7
:101BE000FEE7FEE77047704710B500F0B3FD10BD8B
:101BF00010B5024800F06FF810BDC0462800002064
:101C000082B00A4B996901221143996199690A408E
:101C10000092009ADA69802149050A43DA61DB699A
:101C20000B400193019B02B07047C0460010024078
:101C300000B583B002680C4B9A4201D003B000BDDE
:101C40000A4A916980200001014391619369034030
:101C50000193019B002200210D2000F059FE0D2070
:101C600000F086FEEAE7C046002C0140001002406A
:101C700030B5036A046A0125AC4304628469EF3518
:101C8000AC43120122430A24A3430B438261036243
:101C900030BD000030B5036A1024A3430362846999
:101CA000036A054D2C4012032243A024A3430901DB
:101CB00019438261016230BDFF0FFFFF836870220C
:101CC00093430B4307210B43836070477047704772
:101CD00070477047704710B5040003681A6992078F
:101CE0000FD5DA6892070CD5032252421A610123FC
:101CF000037703689B699B0763D0FFF7E9FF002325
:101D0000237723681A69520712D5DA6852070FD56C
:101D1000052252421A610223237723689A69C0235D
:101D20009B001A4253D02000FFF7D2FF00232377F5
:101D300023681A69120710D5DA6812070DD509222F
:101D400052421A61042323772368DB699B0745D03D
:101D50002000FFF7BDFF0023237723681A69D2060E
:101D600012D5DA68D2060FD5112252421A61082321
:101D700023772368DA69C0239B001A4235D02000FC
:101D8000FFF7A6FF0023237723681A69D20702D53D
:101D9000DA68D20730D423681A69120602D5DA68E5
:101DA000120630D423681A69520602D5DA68520640
:101DB00030D423681A69920602D5DA68920630D4C4
:101DC00010BDFFF784FF2000FFF783FF97E7200097
:101DD000FFF77DFF2000FFF77CFFA7E72000FFF75C
:101DE00076FF2000FFF775FFB5E72000FFF76FFFD4
:101DF0002000FFF76EFFC5E7022252421A61200061
:101E0000FFF764FFC7E7812252421A61200000F009
:101E100048F9C7E7412252421A612000FFF75AFFF2
:101E2000C7E7212252421A61200000F039F9C7E7C2
:101E300003681D4A904202D01C4A904203D170228E
:101E400093434A681343184A90420ED0174A90426F
:101E50000BD0174A904208D0164A904205D0164A35
:101E6000904202D0154A904203D1154A1340CA68E5
:101E70001343802293434A69134303608B68C36210
:101E80000B688362084B984208D00A4B984205D0F1
:101E9000094B984202D0094B984201D10B69036368
:101EA000012343617047C046002C014000040040FC
:101EB0000020004000400140004401400048014033
:101EC000FFFCFFFF70B5041E26D03D23C35C002B32
:101ED0001CD03D2502236355210001C9FFF7A8FF4F
:101EE00001234622A354083AA3540132A3540132D9
:101EF000A3540132A3540132A3540132A35401323A
:101F0000A3540132A3546355002070BD3C3300221A
:101F1000C254FFF78DFEDCE70120F6E730B5846898
:101F2000034D2C401B0213430B432343836030BDFE
:101F3000FF00FFFF10B504003C23C35C012B00D160
:101F400078E03C230122C25401330132C2540268BA
:101F500093683948034093600B68602B50D02AD8AF
:101F6000402B58D00CD9502B23D1CA68496820681F
:101F7000FFF77EFE50212068FFF7A0FE002005E05D
:101F8000202B0ED009D9302B0BD001203D2301226C
:101F9000E254013B0022E25410BD002B01D0102B73
:101FA00005D119002068FFF789FE0020EEE7012027
:101FB000ECE70120EAE780225201934236D08022EA
:101FC000920193420DD1CB684A6889682068FFF777
:101FD000A5FF226891688023DB010B4393600020FA
:101FE000D4E7702B24D1CB684A6889682068FFF752
:101FF00095FF2268936877210B4393600020C5E723
:10200000CA6849682068FFF745FE60212068FFF72D
:1020100055FE0020BAE7CA6849682068FFF728FE25
:1020200040212068FFF74AFE0020AFE70020ADE71F
:102030000120ABE70220AFE78800FFFF30B53C236B
:10204000C35C012B24D03C230122C2540133013252
:10205000C25403685A689C687025AA430D682A43D5
:102060005A6003680B4A934205D00B4A934202D050
:102070000A4A934204D1802294434A6814439C60E4
:102080003D230122C254013B0022C254002030BD36
:102090000220FCE7002C0140000400400040014009
:1020A0007047704770B582B0041E00D12EE20368FD
:1020B000DB0726D5AE4B5A680C231340042B18D0EF
:1020C000AB4B5A680C231340082B0ED06368012BCE
:1020D0003CD0002B51D1A64B1A68A6490A401A6081
:1020E0001A68A5490A401A6036E0A14B5B68DB0319
:1020F000ECD59F4B1B689B0303D56368002B00D175
:1021000007E223689B0772D5994B5B680C221A4241
:102110005DD0974B5A680C231340082B53D0E368CB
:10212000002B00D185E0924A136801210B43136014
:1021300000F01CFB05008E4B1B689B0770D400F061
:1021400015FB401B0228F6D90320E0E1884A1168FC
:1021500080235B020B4313606368002B25D000F0E3
:1021600005FB0500824B1B689B03CAD400F0FEFAF6
:10217000401B6428F6D90320C9E1052B09D07C4B0C
:102180001A687C490A401A601A687B490A401A603A
:10219000E2E7774B19688022D2020A431A60196875
:1021A000802252020A431A60D6E700F0DFFA0500E7
:1021B0006F4B1B689B03A4D500F0D8FA401B642822
:1021C000F6D90320A3E16A4B5B68DB03A7D4684B15
:1021D0001B689B0703D5E368012B00D09BE1644992
:1021E0000B68F82293432269D20013430B602368E3
:1021F0001B0744D5E369002B2ED05D4A536A0121A9
:102200000B43536200F0B2FA0500594B5B6A9B071F
:1022100035D400F0ABFA401B0228F6D9032076E152
:1022200053490B68F82293432269D20013430B6091
:10223000DDE74F4A136801218B43136000F096FAE3
:1022400005004B4B1B689B07D1D500F08FFA401B54
:102250000228F6D903205AE1454A536A01218B43EB
:10226000536200F083FA0500414B5B6A9B0706D579
:1022700000F07CFA401B0228F6D9032047E12368CE
:102280005B0700D480E03A4BDB69DB001DD4384AA1
:10229000D169802040050143D161D3690340019396
:1022A000019B0125354B1B68DB0510D5A368012B6D
:1022B00021D0002B36D12E4B1A6A01218A431A6293
:1022C0001A6A03318A431A621AE00025EAE72B4AA8
:1022D000116880235B000B43136000F047FA06008F
:1022E000264B1B68DB05E1D400F040FA801B642814
:1022F000F6D903200BE11E4A136A01210B43136236
:10230000A368002B24D000F031FA0600184B1B6A9A
:102310009B0737D400F02AFA801B194B9842F5D955
:102320000320F4E0052B09D0114B1A6A01218A43DE
:102330001A621A6A03318A431A62E1E70C4B1A6A7D
:1023400004210A431A621A6A03390A431A62D7E758
:1023500000F00CFA0600064B1B6A9B0712D500F032
:1023600005FA801B064B9842F5D90320CFE0C04602
:1023700000100240FFFFFEFFFFFFFBFF0070004068
:1023800088130000012D33D02368DB0610D5636964
:10239000012B33D0053351D1654A536B04218B4354
:1023A0005363536BF4318B43A169C9000B435363EF
:1023B000236A002B00D1B0E05D4A51680C220A402C
:1023C000082A00D18AE0022B4FD0594A1368594994
:1023D0000B40136000F0CAF90400554B1B689B01C9
:1023E0007AD500F0C3F9001B0228F6D903208EE04D
:1023F0004F4AD36950490B40D361C5E74C4B5A6BE8
:1024000004210A435A635A6B03390A435A6300F0A2
:10241000ADF90500464B5B6B9B0706D400F0A6F9AF
:10242000401B0228F6D9032071E041494B6BF8228A
:102430009343A269D20013434B63B9E73C4B5A6BF9
:1024400004210A435A635A6B03398A435A6300F0E2
:102450008DF90500364B5B6B9B07A9D500F086F91B
:10246000401B0228F6D9032051E0314A1368314954
:102470000B40136000F07AF905002D4B1B689B019F
:1024800006D500F073F9401B0228F6D903203EE080
:10249000274BDA6A0F218A43E16A0A43DA625A68F3
:1024A00026490A40A16A606A01430A435A601968D2
:1024B000802252040A431A6000F058F904001C4BB1
:1024C0001B689B0106D400F051F9001B0228F6D9C5
:1024D00003201CE000201AE0002018E0012B1ED091
:1024E000134B5A68D96A80235B021340606A8342A7
:1024F00017D10F230B40E16A8B4214D1F0239B03C9
:102500001A40A36A9A4210D1002000E0012002B0D4
:1025100070BD0120FBE70120F9E70020F7E701206B
:10252000F5E70120F3E70120F1E70120EFE7C046DE
:1025300000100240FFFFFFFEFFFFFFEFFFFFC2FFA3
:1025400010B588B004AA164B13CB13C21B681360D6
:102550006A46144B13CB13C21B681360124B5A68A4
:102560000C231340082B02D0104808B010BD910C6A
:102570000733194004A8445C0B49C96A0B406946FB
:10258000C95CD30304D50948FDF7BEFD6043ECE701
:1025900063011B1B9801C01AC00000190002E4E788
:1025A000A0410008B44100080010024000127A0067
:1025B00070B504000D00002800D17EE0434B1A687E
:1025C000012313408B420AD240490B6801229343F6
:1025D0002B430B600B681A40AA4200D06FE02368BF
:1025E0009A070ED55B0705D5394A5168E023DB0011
:1025F0000B435360364A5368F0218B43A1680B4369
:1026000053602368DB072DD56368012B1ED0022B96
:1026100022D02F4A1268920753D52D494A680320C9
:10262000824313434B6000F0A1F80600284B5B681F
:102630000C221A4063689B009A4213D000F096F86F
:10264000801B244B9842F1D9032035E0204A1268C0
:102650009203E2D401202FE01D4A12689201DCD4DB
:10266000012029E0194B1A6801231340AB4209D914
:1026700016490B68012293432B430B600B681A40E9
:10268000AA4220D123685B0706D5114A5368124934
:102690000B40E1680B435360FFF752FF0C4B5A6845
:1026A00012090F2313400D4AD35CD8400C4B18601D
:1026B000032000F017F8002070BD0120FCE7012086
:1026C000FAE70120F8E70120F6E7C04600200240C3
:1026D0000010024088130000FFF8FFFFC841000807
:1026E0000800002010B504000F4B1978FA20800074
:1026F000FDF70AFD01000D4B1868FDF705FD00F020
:1027000043F900280DD1032C01D901200AE0013042
:1027100000222100404200F0FBF8054B1C60002025
:1027200000E0012010BDC04600000020080000208D
:102730000400002010B5064A136810210B431360F3
:102740000320FFF7CFFFFFF75BFA002010BDC04664
:1027500000200240034A1168034B1B785B1813608A
:102760007047C0467004002000000020014B18682C
:102770007047C04670040020F0B583B0002357E0D6
:1027800084685F000326BE40B4432600CC68BC408A
:1027900034438460446894434A68160901223240F5
:1027A0009A402243426053E0DC080834A4002658D3
:1027B00005321A4092000F279740BE430F69974099
:1027C0003A003243225057E0032600E00026A6409C
:1027D00034003C4302329200444E9451444A1468FF
:1027E000EA432600AE434F68FF0301D52C43260081
:1027F0003F4C26606468260016404F68BF0301D531
:102800002C4326003A4C6660A468260016404F68A8
:10281000FF0201D52C432600354CA660E468224017
:102820004E68B60201D52A002243314CE2600133E2
:102830000C682200DA4057D001229A40250015404A
:102840001442F4D003244E683440013C012C97D943
:1028500003224C682240032A09D0C2685E00032488
:10286000B440A24314008A68B2402243C2600322EB
:102870004C682240022A97D004685E0003221700A9
:10288000B740BC434F683A40B24022430260C02286
:1028900092024C681442CAD0164CA6690122164313
:1028A000A661A46922400192019A9A08941CA4008E
:1028B0000E4EA75903241C40A4000F26A640B74380
:1028C0009026F605B04281D00B4EB04208D00B4E98
:1028D000B04207D00A4EB04200D175E7052676E730
:1028E000012674E7022672E703B0F0BD0000014044
:1028F00000040140001002400004004800080048A5
:10290000000C0048002A01D0816170478162FCE719
:1029100070B5002811DB8308134EC0339B009D590E
:1029200003242040C000FF2214008440A5438901F5
:102930000A4082402A439A5170BD0F230340083B4E
:102940009B0806339B00094A944663445C68032253
:102950001040C000FC3215008540AC4389010A409C
:10296000824022435A60E7E700E100E000ED00E02A
:10297000002805DB1F2318401E3B8340014A1360DB
:102980007047C04600E100E0013880235B049842B4
:102990000FD2094A50600948036A1B021B0AC02172
:1029A00009060B4303620023936007331360002082
:1029B00070470120FCE7C04610E000E000ED00E0B9
:1029C00070479023DB0506229A6203B2002B00DADF
:1029D000BAE09023DB0501229A6104329A62430433
:1029E00003D59023DB05013A9A619023DB05012290
:1029F0009A6104329A62830403D59023DB05013A7D
:102A00009A619023DB0501229A6104329A62C30421
:102A100003D59023DB05013A9A619023DB0501225F
:102A20009A6104329A62030503D59023DB05013ACB
:102A30009A619023DB0501229A6104329A62430570
:102A400003D59023DB05013A9A619023DB0501222F
:102A50009A6104329A62830503D59023DB05013A1B
:102A60009A619023DB0501229A6104329A62C305C0
:102A700003D59023DB05013A9A619023DB050122FF
:102A80009A6104329A62030603D59023DB05013A6A
:102A90009A619023DB0501229A6104329A6243060F
:102AA00003D59023DB05013A9A619023DB050122CF
:102AB0009A6104329A62830603D59023DB05013ABA
:102AC0009A619023DB0501229A6104329A62C3065F
:102AD00003D59023DB05013A9A619023DB0501229F
:102AE0009A6104329A62030703D59023DB05013A09
:102AF0009A619023DB0501229A6104329A624307AE
:102B000003D59023DB05013A9A619023DB0501226E
:102B10009A6104329A62830703D59023DB05013A58
:102B20009A619023DB0501229A6104329A62C307FD
:102B300003D59023DB05013A9A619023DB0501223E
:102B40009A6104329A6270479023DB05023A9A61D7
:102B50003FE79023DB0502229A6102329A6203B2B8
:102B6000002B00DABCE09023DB0501229A610432DD
:102B70009A62430403D59023DB05013A9A619023BE
:102B8000DB0501229A6104329A62830403D5902303
:102B9000DB05013A9A619023DB0501229A61043238
:102BA0009A62C30403D59023DB05013A9A6190230E
:102BB000DB0501229A6104329A62030503D5902352
:102BC000DB05013A9A619023DB0501229A61043208
:102BD0009A62430503D59023DB05013A9A6190235D
:102BE000DB0501229A6104329A62830503D59023A2
:102BF000DB05013A9A619023DB0501229A610432D8
:102C00009A62C30503D59023DB05013A9A619023AC
:102C1000DB0501229A6104329A62030603D59023F0
:102C2000DB05013A9A619023DB0501229A610432A7
:102C30009A62430603D59023DB05013A9A619023FB
:102C4000DB0501229A6104329A62830603D5902340
:102C5000DB05013A9A619023DB0501229A61043277
:102C60009A62C30603D59023DB05013A9A6190234B
:102C7000DB0501229A6104329A62030703D590238F
:102C8000DB05013A9A619023DB0501229A61043247
:102C90009A62430703D59023DB05013A9A6190239A
:102CA000DB0501229A6104329A62830703D59023DF
:102CB000DB05013A9A619023DB0501229A61043217
:102CC0009A62C30703D59023DB05013A9A619023EA
:102CD000DB0501229A6104329A62033A9A627047D4
:102CE0009023DB059A613EE710B504000800FFF76A
:102CF00068FE2000FFF72DFF10BD000010B586B064
:102D00001422002101A800F06FF80F4A51698020B9
:102D1000800201435161536903400093009B90245A
:102D2000E405002207212000FFF7ECFD07230193B3
:102D3000063B029303930233049301A92000FFF79B
:102D40001BFD06B010BDC046001002400D48854670
:102D50000D480E490E4A002302E0D458C4500433F3
:102D6000C4188C42F9D30B4A0B4C002301E01360CA
:102D70000432A242FBD3FFF723FE00F011F8FEF766
:102D8000D9FEFEE700200020000000200C000020FB
:102D9000B84300080C00002074040020FEE7000087
:102DA00070B500260C4D0D4C641BA410A64209D131
:102DB000002601F0C7F90A4D0A4C641BA410A64274
:102DC00005D170BDB300EB5898470136EEE7B3006C
:102DD000EB5898470136F2E7B0430008B0430008CB
:102DE000B0430008B443000803008218934200D1A6
:102DF000704719700133F9E7D0B5264A4B0086B009
:102E00005B08934222DD244A934209DD02000B0055
:102E1000FEF7E2F902000B001000190006B0D0BD69
:102E200002AA00F03BF803231840049A059B0128EE
:102E300015D0022823D0002818D00298039900F05A
:102E400035FA80231B060200CB18E5E70023002299
:102E50000093002300F0A4FF02000B00DCE70298BF
:102E6000039900F023FA02000B00D5E70124029831
:102E70000399009400F094FF02000B00CCE70124BA
:102E800002980399009400F08BFF80231B06020038
:102E9000CB18C1E7FB21E93FFFFFEF7FF0B54E46BE
:102EA0005746DE464546E0B5DF4B4E0017008946E3
:102EB0008FB076089E4200DC8BE0DC4B9E4228DC23
:102EC000DB4A002900DC90E1DA4BFEF785F9D94BAB
:102ED00004000D009E4200D191E0D74AD74BFEF787
:102EE0007BF902000B0020003A607B602900FEF7AE
:102EF00073F9D24BD04AFEF76FF901239846B860B8
:102F0000F96040460FB0F0BCBB46B246A946A046A9
:102F1000F0BDCB4B9E4200DC8DE0CA4B9E4263DC91
:102F2000C94932158846904443461B05F51A2900C5
:102F30000400FEF7E3FCFEF717FD02000B00200083
:102F4000290008920993FEF747F90022BF4BFDF7CD
:102F5000D7FE0D000400FEF7D1FC0600FEF704FDCD
:102F600002000B00200029000A920B93FEF734F9AF
:102F70000022B64BFDF7C4FE002200230C900D91F9
:102F8000FDF748FA002800D103E133005A1E9341AF
:102F90000133AF4A39000192022208A8009242464A
:102FA00000F09CFA4B468046002BAADA80200006EF
:102FB000844679683A6861440B00F9683A607B603E
:102FC00061440B00BA68BA60FB6043465B429846B6
:102FD00097E702000B003A607B6000230022BA6092
:102FE000FB60002398468CE70B000200FEF7F4F824
:102FF0000023B860F96098463860796081E7D32291
:103000008E4B5205FEF7E8F8924A934B04000D00F0
:10301000FEF7E2F802000B0020003A607B60290016
:10302000FEF7DAF88C4B8B4AFEF7D6F80123B8602E
:10303000F960984665E700F069FF884A884B04000C
:103040000D00FDF75DFE0022864BFDF711FAFEF73D
:1030500055FC8046FEF788FC754A764B0490059136
:10306000FDF74EFE02000B0020002900FEF7B4F829
:10307000724B02900391049805996F4AFDF740FE48
:10308000434604000D001F2B36DC774A013B9B00B2
:103090009B58B34230D00298039922002B00FEF7D0
:1030A0009BF882468B4652465B463A607B600298AC
:1030B000039952465B46FEF78FF822002B00FEF77D
:1030C0008BF8030008001A0019000300BA60FB60C7
:1030D0004B46002B00DB14E7802380241B069C4614
:1030E0004346554624065C4460445B4298463D6036
:1030F0007C60B960F86004E72B0002980399220015
:10310000FEF76AF84B0036155B0D82468B46F31AC4
:10311000102BC8DD04980599D322484B5205FDF7C2
:10312000EFFD04000D0002000B0002980399FEF76A
:1031300053F802000B000298039906920793FEF7DA
:103140004BF822002B00FEF747F804000D0004980E
:103150000599404A404BFDF7D3FD22002B00FEF7B6
:103160003BF80B00020004000D0006980799FEF7DB
:1031700033F84B005B0D82468B46F61A312E0ADC83
:1031800002000B003A607B60069A079B0292039351
:103190008DE70323FDE6B822049805992E4B92058E
:1031A000FDF7AEFD04000D0002000B000698079924
:1031B000FEF712F802000B0006980799029203939B
:1031C000FEF70AF822002B00FEF706F804000D00B7
:1031D00004980599254A264BFDF792FD22002B0005
:1031E000FDF7FAFF04000D0055E7124BFDF740F91B
:1031F000104B04000D009E423CD00F4A0F4BFDF7D0
:1032000037F902000B0020003A607B602900FDF7CF
:10321000E3FF094A094BFDF72BF901235B4298466E
:10322000B860F9606DE6C046FB21E93F7BD90240FA
:1032300000004054FB21F93F3163621A61B4D03D74
:10324000FB213941FFFFEF7FEAFBFFFF00007041E8
:10325000584200087370032E8A19A33B83C8C96DB6
:10326000305FE43F0000E03FD8410008C14920251D
:103270009A837B39D3220A4B5205FDF7F9F8094AA4
:10328000094B04000D00FDF7F3F802000B002000CD
:103290003A607B602900FDF79FFF024A024BBAE7C4
:1032A00061B4D03D7370032E8A19A33BF0B5474635
:1032B000CE4680B587B000920193F9234F00814636
:1032C00088467F089B059F4263DAFEF717FB0028BC
:1032D00000D1DAE04A46434648464146FDF710FD34
:1032E00004000D006A4A6B4BFDF70AFD6A4A6B4BFE
:1032F000FDF7BEF822002B00FDF702FD684A694B7E
:10330000FDF76AFF22002B00FDF7FAFC664A674BC7
:10331000FDF7AEF822002B00FDF7F2FC644A654B86
:10332000FDF75AFF22002B00FDF7EAFC624A634BCF
:10333000FDF79EF822002B00FDF7E2FC02900391BE
:103340000022200029005E4BFDF7DAFC029A039B65
:1033500006000F0020002900FDF7D2FC009A019B17
:1033600004000D0048464146FDF7CAFC02000B0070
:1033700020002900FDF730FF02000B00300039006B
:10338000FDF72AFF02000B0000204E49FDF724FF45
:1033900070E002000B00FDF7B3FC04000D003C4A96
:1033A0003C4BFDF7ADFC3C4A3C4BFDF761F822007D
:1033B0002B00FDF7A5FC3A4A3A4BFDF70DFF220022
:1033C0002B00FDF79DFC384A384BFDF751F82200E1
:1033D0002B00FDF795FC364A364BFDF7FDFE22002B
:1033E0002B00FDF78DFC344A344BFDF741F82B00E0
:1033F0002200FDF785FC344B029003919F429FDD34
:10340000324B00229F423ADC314900207B182D4983
:1034100016001F00FDF7E0FE049005910022200039
:103420002900274BFDF76CFC32003B00FDF7D4FE72
:10343000029A039B06000F0020002900FDF760FCA4
:10344000009A019B04000D0048464146FDF758FCD8
:1034500002000B0020002900FDF7BEFE02000B0059
:1034600030003900FDF7B8FE02000B000498059902
:10347000FDF7B2FE07B0C0BCB946B046F0BD154B73
:10348000002604920593144FC8E700200D49F1E788
:10349000D43888BEE9FAA8BDC4B1B4BD9EEE213EC1
:1034A000AD529C804F7E923E9015CB19A001FA3E02
:1034B0007751C1166CC1563F4C5555555555A53FD2
:1034C0000000E03F0000F03F3233D33F0000E93F0F
:1034D0000000E0FF0000E73F0000D23FF0B5DE460D
:1034E00057464E464546E0B5DD4CA5440D911900C2
:1034F0001400A49A0A93DB4B9200D2580B00013BB4
:103500000493230006900892143300DAA1E31821F3
:10351000E01EFCF783FE030001339A009B1A05901E
:10352000DB00E318059A0793049BD41A089AD6186F
:1035300014D40136A59F22AD361907E0A300F85830
:10354000FEF712FA013403C5B44207D0002CF5DAB5
:1035500000200021013403C5B442F7D1089B002BA1
:1035600001DA00F0FDFB0A9922AA8C469346089ADC
:1035700072AB62440392069A994690460093049B6C
:103580009A46DB009B4408339844049B00240025A2
:10359000002B13DB5F4600240025069E3A687B68FB
:1035A00003CEFDF7ADFB02000B0020002900FCF765
:1035B0005FFF083F04000D004645EFD14B4630C386
:1035C000994608239C46073BE3449C46039BE24400
:1035D0009A45DAD10EA804228446524262449446A7
:1035E00008998B009C4462468446083B63440B93D5
:1035F000059B0C92A59A980094460300634405939A
:103600000A9B8846DA00069B083B9B469344DA46B1
:103610004346DB001900009A8C460993130063446B
:103620001E685F684346002B32DD91468E4B434453
:10363000DB0099440EAB9B4600228C4B30003900D6
:10364000FDF75EFBFEF75AF9FEF78EF90022884B74
:1036500004000D00FDF754FB02000B0030003900A0
:10366000FDF7BAFDFEF74AF95B4601C39B464B46A0
:1036700020001A685B682900FCF7FAFE0822524213
:1036800094464B46009A06000F00E1449A42D3D17B
:10369000079B30001A0039009B4600F0D7FCFF233F
:1036A00000229B0504000D00FDF72AFB00F032FC10
:1036B0000022704BFDF724FB02000B0020002900C4
:1036C000FDF78AFD04000D00FEF718F98146FEF7AC
:1036D0004BF902000B0020002900FDF77DFD5C4640
:1036E00006000F00002C00DC85E04346591E8900CF
:1036F0000EAB5B5818201A00001B02419144824017
:103700009D1A0EAB5D5017231B1B1D41002D00DDC4
:103710007EE00022002330003900FCF77BFE002809
:1037200000D1E9E04346591E089B8B420FDC0EAAEC
:1037300094460022504B0C9843449B0063441C6801
:10374000043B22438342FAD1002A00D023E1089BA4
:103750000EAA013B9B00D358002B00D016E10B9A18
:1037600001331168043A01330029FAD0012242449E
:103770009346434403930A9B22AA43449046009AEB
:10378000DB0094469844099B634499465B46059A3E
:103790009B00D058FEF7E8F8434618605960049B38
:1037A000002B25DB474600240025069E02E0083654
:1037B0003868796832687368FDF7A2FA02000B0076
:1037C00020002900FCF754FE083F04000D00564578
:1037D000EDD14B469C60DD6001239C460733E344FA
:1037E0009C46039BE044E1449B45CFDD98460FE7B0
:1037F00000240025EDE7079B002B00D0BDE04346E9
:10380000013B9B000EAAD558ED15002D00DC80E78A
:1038100001239C464346E144002B00DC2FE20E9C32
:10382000002C00D09FE04346012B2FD001224146BF
:103830000FAB1C68002C00D198E08846531C8021F7
:1038400049049200091B0EA8815098451DDD414690
:1038500084469B008900C25861440848634410E0D4
:1038600094FDFFFFA0430008FFFFFF1F0000703E14
:103870000000704100002040FFFFFF3FFFFFFF00FE
:103880001A68821A04C38B42FAD10124079B002BC9
:103890000EDD012B00D1D1E1022B09D143465A1E86
:1038A00092000EAB9B580EA903939B029B0A8B5070
:1038B000022D00D02DE732003B0000209349FDF798
:1038C0008BFC06000F00002C00D122E7079A002095
:1038D0008E4900F0BBFB02000B0030003900FDF701
:1038E0007BFC06000F000022002330003900FCF7AB
:1038F00091FD002800D015E74B460693079B30004A
:103900005A423900049500F0A1FB0022804B0400CC
:103910000D00FCF7A3FD002800D1EEE17D4B002255
:1039200020002900FDF7ECF9FDF7E8FF424606000C
:103930009700FEF719F80022754BFDF7E1F9020038
:103940000B0020002900FDF747FCFDF7D7FF0EAA6A
:10395000D0514246079B01321833039207939300DC
:103960000EAAD65032E00123002268E70132043368
:103970008A4200D05DE7884688E70022664BFCF764
:103980006DFD002800D069E10025C2E60123434413
:103990009B460393EFE64B460A000693079B039171
:1039A000183B190007930EA89300C3580495002BE9
:1039B0000CD18446594B43449B0063441868043B34
:1039C000013A18390028F9D0039207910020079A8C
:1039D0004E4900F03BFB039B04000D00002B00DA76
:1039E000C1E10EAA9446D9009E00009B66441A00CD
:1039F0008C46624417009346984605913068FDF75F
:103A0000B3FF22002B00FDF77BF9424B3860796051
:103A1000002220002900FDF773F9043E3B0004005A
:103A20000D00083F9845E9D1002399464AAB009321
:103A3000089B9A46534600240025002B21DB80205A
:103A4000374B5F4698460024002500263549C005BF
:103A500008E008239C460837E044B14511DB4346A3
:103A6000186859683A687B68FDF74AF902000B004C
:103A700020002900FCF7FCFC013604000D00B245D3
:103A8000E7DA009A4B4694460822DB006344524230
:103A900094461C605D604B46039A0133E3449145B4
:103AA00001D09946C6E7009B9A46A49B022B3BDCBB
:103AB000002B00DDE5E01CD1002500245746059EC3
:103AC00056443268736828002100FCF7D1FC3300AB
:103AD00005000C00083E9F42F3D1049B002B03D04D
:103AE00080231B069C4664442A0023000D990A602B
:103AF0004B600720069B18409B239B009D44F0BC15
:103B0000BB46B246A946A046F0BDC0460000F03F05
:103B1000000070410000703E0000E03FFEFFFF3FEC
:103B200060430008FB21F93FA49B032BE1D1039BD9
:103B3000002B00D12DE1984A059B944653441C6804
:103B40005D68039B63449B46DB00534498464346B1
:103B500020001E685F68290032003B000094019538
:103B6000FCF786FC02000B0004000D003000390059
:103B7000FDF732FB009A019BFCF77AFC4346986004
:103B8000D9601C605D6008235B42C1469C46E044EE
:103B9000CA45DCD1039B012B00DCFAE05B46DB006D
:103BA0009946D046059EC8445644346875684346D5
:103BB00020001E685F68290032003B0000940195D8
:103BC000FCF756FC02000B0004000D003000390029
:103BD000FDF702FB009A019BFCF74AFC4346986004
:103BE000D9601C605D6008235B4246469846B0443D
:103BF000C245DCD14C460027002508345444380027
:103C0000226863682900FCF733FC083C07000D00BC
:103C1000A642F4D1049B002B7AD14A9B4B9C0D9970
:103C20003A000B604C605346DC689B68009301943B
:103C30008B60CC602B000A614B615AE743465A1EE9
:103C400092000EAB9B580EA903935B025B0A8B504C
:103C50002EE6182300225B42059262E401239C4673
:103C600043460225E144002B00DDD8E532003B004D
:103C700000204A49FDF7B0FA06000F0049E500248C
:103C800004E6002500245746059E564432687368B2
:103C900028002100FCF7ECFB330005000C00083E77
:103CA0009F42F3D1049B002B48D123002A000D9999
:103CB0000A604B604A984B99FDF78EFA039B070008
:103CC0000E00002B13DD01244CAD38000CCD31006B
:103CD000FCF7CEFB039B013407000E00A342F4DA8D
:103CE000049B002B03D080231B069C4666443A00AD
:103CF00033000D998A60CB60FBE643462000290023
:103D00009E00FDF7FBFD0EAB9851434603935DE625
:103D1000802051460006844649680D9861440B0096
:103D20004A9A6446026043605346D9689A6865447B
:103D30000B198260C36007614561DAE680234A9807
:103D40004B990D9A1B06E3185360156023002A0057
:103D5000FDF742FA039B07000E00002BB3DCC2E71D
:103D600072AB009336E4A49B022B06DC002B0DDC27
:103D700000D0BEE600250024AFE6A49B032B00D0B4
:103D8000B7E64AAB002700259A4643E70025002402
:103D900088E700273D003DE7FFFFFF1F0000F03FE1
:103DA000F0B5CE46474680B587B000920193F92220
:103DB0004B00814688465B089205934207DA4846E5
:103DC0004146FDF79BFD4A46434600284AD04A46F5
:103DD000434648464146FCF793FF04000D000200AD
:103DE0000B0048464146FCF78BFF3B4A3B4B060025
:103DF0000F0020002900FCF783FF394A394BFDF7FB
:103E0000EBF922002B00FCF77BFF374A374BFCF71E
:103E10002FFB22002B00FCF773FF354A354BFDF7D3
:103E2000DBF922002B00FCF76BFF334B334AFCF726
:103E30001FFB0E9B02900391002B1AD102000B0076
:103E400020002900FCF75CFF2D4A2E4BFDF7C4F93A
:103E500032003B00FCF754FF4A464346FCF708FBA0
:103E600002000B001000190007B0C0BCB946B046F4
:103E7000F0BD002200980199234BFCF741FF029A04
:103E8000039B0490059130003900FCF739FF0200D4
:103E90000B0004980599FDF79FF922002B00FCF711
:103EA0002FFF009A019BFDF797F9154A04000D00BA
:103EB000144B30003900FCF723FF02000B002000F8
:103EC0002900FCF7D5FA02000B0048464146FDF7F1
:103ED00083F902000B00C5E77CD5CF5A3AD9E53DFE
:103EE000EB9C2B8AE6E55A3E7DFEB157E31DC73EAB
:103EF000D561C119A0012A3F1111813FA6F8101107
:103F0000495555555555C53F0000E03F4B005908F0
:103F10007047C046474AF0B5464690464B005B0D99
:103F200098444F46D6464246C0B505000C000E00E8
:103F30000700132A39DC002A26DB3F4B8446134155
:103F400099460B408A46034317D03C4A3C4B280015
:103F50002100FCF78DFA00220023FCF775FA0028F7
:103F600009D0002C04DA8026434676031E41361918
:103F70004B4600279E43BC46B24651466046E0BCD5
:103F8000BA46B146A846F0BD2C4A2D4B2800210068
:103F9000FCF76EFA00220023FCF756FA0028EAD05C
:103FA000002C2FDB00270026E5E7332A0EDD8023D7
:103FB00084468A46DB009845DFD102000B002800CA
:103FC0002100FCF755FA84468A46D6E71D4A8A4600
:103FD0009446012263445242DA40844691460242AA
:103FE000CBD0164A164B28002100FCF741FA0022DC
:103FF0000023FCF729FA0028BDD0002C09DB4B4632
:104000009F43B8E76400640800272543B3D00E4EF1
:10401000B1E74346142B09D03422D21A012393402E
:104020005D19BD4204D22F00661CE8E7661CE6E776
:104030002F00E4E701FCFFFFFFFF0F009C750088E5
:104040003CE4377EEDFBFFFF0000F0BF4B0070B596
:104050005B0D14000A00002B25D14B005B080343C5
:1040600020D02B4B0022FCF74BFE2A4B9C4247DB17
:104070000A004B005B0D363B274DE318AB421ADCC0
:10408000002B37DC1D00353529DA244B9C4212DC2D
:10409000234C244D002938DB20002900204A214BE5
:1040A000FCF72EFE70BD204DAB42E5D102000B00A7
:1040B000FCF7DEF9F6E71D4C1D4D002906DB20005C
:1040C00029001A4A1A4BFCF71BFEEBE7174C194D57
:1040D00020002900154A164BFCF712FEE2E7164CA9
:1040E000363322401B05134319000022134BFCF703
:1040F00007FED7E7104C1B0522401A431100D1E7F9
:10410000074A084BFCF7FCFDCCE7054C0C4DC3E718
:1041100000005043B03CFFFFFE07000050C300000A
:1041200059F3F8C21F6EA501FF0700009C750088B7
:104130003CE4377E3CE437FEFFFF0F800000903CFC
:104140001F6EA581F8B5C046F8BC08BC9E467047F6
:0C415000F8B5C046F8BC08BC9E4670479D
:10416000E60D0008A40D0008A40D0008A00D00082D
:10417000AA0D0008AA0D0008B6100008A00D00083E
:10418000AA0D0008B6100008AA0D0008A00D00082E
:104190004A1000084A1000084A10000820110008C0
:1041A00002030405060708090A0B0C0D0E0F101078
:1041B000000000000102030405060708090A0B0CB1
:1041C0000D0E0F10000000000000000000000000B5
:1041D0000102030406070809FB21F93FFB210940FE
:1041E0007CD91240FB2119407A6A1F407CD92240B9
:1041F000BBFD2540FB2129403A462C407A6A2F40DE
:104200005C4731407CD932409C6B3440BBFD35402B
:10421000DB8F3740FB2139401BB43A403A463C40E3
:104220005AD83D407A6A3F404C7E40405C4741400E
:104230006C1042407CD942408CA243409C6B44406D
:10424000AC344540BBFD4540CBC64640DB8F4740C4
:10425000EB584840FB21494083F9A200444E6E00D0
:10426000FC291500D1572700DD34F50062DBC000C2
:104270003C999500419043006351FE00BBDEAB00CA
:10428000B761C5003A6E2400D24D42004906E000F5
:1042900009EA2E001C92D100EB1DFE0029B11C0082
:1042A000E83EA700F535820044BB2E009CE984005F
:1042B000B4267000417E5F00D691390053833900E7
:1042C0009CF439008B5F840028F9BD00F81F3B0087
:1042D000DEFF97000F980500112FEF000A5A8B00A0
:1042E0006D1F6D00CF7E360009CB2700464FB7000B
:1042F0009E663F002DEA5F00BA277500E5EBC70018
:104300003D7BF100F739070092528A00FB6BEA000F
:104310001FB15F00085D8D00300356007BFC460036
:10432000F0AB6B0020BCCF0036F49A00E3A91D006F
:104330005E619100081BE60085996500A0145F008E
:104340008D40680080D8FF0027734D0006063100BD
:10435000CA561500C9A873007BE260006B8CC000D0
:1043600000000040FB21F93F000000002D44743E96
:10437000000000809846F83C0000006051CC783B7B
:1043800000000080831BF0390000004020257A38AF
:10439000000000802282E336000000001DF3693532
:1043A00002000000030000000400000006000000FE
:0443B000E900000818
:0443B400C10000083C
:0C43B800010000000400000000127A0068
:0400000508002D4D75
:00000001FF
