:020000040800F2
:1000000000800020C9150008990C00089B0C00080E
:100010009D0C00089F0C0008A10C000800000000C7
:10002000000000000000000000000000A30C000819
:10003000A50C000800000000A70C0008A90C00088F
:1000400011160008111600081116000811160008F4
:1000500011160008111600081116000811160008E4
:1000600011160008111600081116000811160008D4
:1000700011160008111600081116000811160008C4
:1000800011160008111600081116000811160008B4
:1000900011160008111600081116000811160008A4
:1000A0001116000811160008111600081116000894
:1000B0001116000811160008111600081116000884
:1000C0001116000811160008111600081116000874
:1000D0001116000811160008111600081116000864
:1000E0001116000811160008111600081116000854
:1000F0001116000811160008111600080000000073
:100100000000000011160008111600080000000091
:100110001116000811160008000000000000000081
:100120001116000811160008111600081116000813
:1001300000000000000000000000000000000000BF
:1001400000000000000000000000000000000000AF
:1001500011160008111600081116000811160008E3
:1001600011160008111600081116000811160008D3
:1001700010B5054C237833B9044B13B10448AFF3E1
:1001800000800123237010BD240000200000000027
:10019000CC29000808B5034B1BB103490348AFF352
:1001A000008008BD0000000028000020CC290008C5
:1001B00081F0004102E000BF83F0004330B54FEA18
:1001C00041044FEA430594EA050F08BF90EA020F85
:1001D0001FBF54EA000C55EA020C7FEA645C7FEA18
:1001E000655C00F0E2804FEA5454D4EB5555B8BF3B
:1001F0006D420CDD2C4480EA020281EA030382EAAC
:10020000000083EA010180EA020281EA0303362D3D
:1002100088BF30BD11F0004F4FEA01314FF4801C10
:100220004CEA113102D0404261EB410113F0004F22
:100230004FEA03334CEA133302D0524263EB4303D9
:1002400094EA050F00F0A780A4F10104D5F1200E77
:100250000DDB02FA0EFC22FA05F2801841F10001D2
:1002600003FA0EF2801843FA05F359410EE0A5F1A6
:1002700020050EF1200E012A03FA0EFC28BF4CF0D7
:10028000020C43FA05F3C01851EBE37101F000458D
:1002900007D54FF0000EDCF1000C7EEB00006EEB9A
:1002A0000101B1F5801F1BD3B1F5001F0CD3490824
:1002B0005FEA30004FEA3C0C04F101044FEA44527B
:1002C00012F5800F80F09A80BCF1004F08BF5FEA02
:1002D000500C50F1000041EB045141EA050130BDE2
:1002E0005FEA4C0C404141EB0101013C28BFB1F5F4
:1002F000801FE9D291F0000F04BF01460020B1FA3F
:1003000081F308BF2033A3F10B03B3F120020CDA11
:100310000C3208DD02F1140CC2F10C0201FA0CF0EF
:1003200021FA02F10CE002F11402D8BFC2F1200C54
:1003300001FA02F120FA0CFCDCBF41EA0C0190400A
:10034000E41AA2BF01EB0451294330BD6FEA040453
:100350001F3C1CDA0C340EDC04F11404C4F120023E
:1003600020FA04F001FA02F340EA030021FA04F350
:1003700045EA030130BDC4F10C04C4F1200220FAA7
:1003800002F001FA04F340EA0300294630BD21FAE5
:1003900004F0294630BD94F0000F83F4801306BFAB
:1003A00081F480110134013D4EE77FEA645C18BF9F
:1003B0007FEA655C29D094EA050F08BF90EA020F36
:1003C00005D054EA000C04BF1946104630BD91EA2E
:1003D000030F1EBF0021002030BD5FEA545C05D131
:1003E0004000494128BF41F0004130BD14F5800470
:1003F0003CBF01F5801130BD01F0004545F0FE41E4
:1004000041F470014FF0000030BD7FEA645C1ABF18
:10041000194610467FEA655C1CBF0B46024650EA4F
:10042000013406BF52EA033591EA030F41F400217B
:1004300030BD00BF90F0000F04BF0021704730B501
:100440004FF4806404F132044FF000054FF00001D6
:1004500050E700BF90F0000F04BF0021704730B597
:100460004FF4806404F1320410F0004548BF40426C
:100470004FF000013EE700BF42004FEAE2014FEAC1
:1004800031014FEA02701FBF12F07F4393F07F4F9C
:1004900081F06051704732F07F4208BF704793F09F
:1004A0007F4F04BF41F40021704730B54FF46074B2
:1004B00001F0004521F000411CE700BF50EA0102B5
:1004C00008BF704730B54FF000050AE050EA01025E
:1004D00008BF704730B511F0004502D5404261EBCE
:1004E00041014FF4806404F132045FEA915C3FF40F
:1004F000D8AE4FF003025FEADC0C18BF03325FEAAC
:10050000DC0C18BF033202EBDC02C2F1200300FA5C
:1005100003FC20FA02F001FA03FE40EA0E0021FA81
:1005200002F11444BDE600BF70B54FF0FF0C4CF46F
:10053000E06C1CEA11541DBF1CEA135594EA0C0F21
:1005400095EA0C0F00F0DEF82C4481EA030621EA5C
:100550004C5123EA4C5350EA013518BF52EA033597
:1005600041F4801143F4801338D0A0FB02CE4FF049
:100570000005E1FB02E506F00042E0FB03E54FF079
:100580000006E1FB03569CF0000F18BF4EF0010E71
:10059000A4F1FF04B6F5007F64F5407404D25FEA6D
:1005A0004E0E6D4146EB060642EAC62141EA555120
:1005B0004FEAC52040EA5E504FEACE2EB4F1FD0C62
:1005C00088BFBCF5E06F1ED8BEF1004F08BF5FEAE0
:1005D000500E50F1000041EB045170BD06F0004692
:1005E00046EA010140EA020081EA0301B4EB5C043F
:1005F000C2BFD4EB0C0541EA045170BD41F4801137
:100600004FF0000E013C00F3AB8014F1360FDEBF5B
:10061000002001F0004170BDC4F10004203C35DA37
:100620000C341BDC04F11404C4F1200500FA05F3BA
:1006300020FA04F001FA05F240EA020001F000425B
:1006400021F0004110EBD37021FA04F642EB0601D1
:100650005EEA430E08BF20EAD37070BDC4F10C04FB
:10066000C4F1200500FA04F320FA05F001FA04F2BF
:1006700040EA020001F0004110EBD37041F10001AB
:100680005EEA430E08BF20EAD37070BDC4F12005B6
:1006900000FA05F24EEA020E20FA04F301FA05F21E
:1006A00043EA020321FA04F001F0004121FA04F2C6
:1006B00020EA020000EBD3705EEA430E08BF20EA96
:1006C000D37070BD94F0000F0FD101F000464000D0
:1006D00041EB010111F4801F08BF013CF7D041EA52
:1006E000060195F0000F18BF704703F00046520056
:1006F00043EB030313F4801F08BF013DF7D043EA27
:100700000603704794EA0C0F0CEA135518BF95EADC
:100710000C0F0CD050EA410618BF52EA4306D1D163
:1007200081EA030101F000414FF0000070BD50EA82
:10073000410606BF1046194652EA430619D094EA0C
:100740000C0F02D150EA013613D195EA0C0F05D1F6
:1007500052EA03361CBF104619460AD181EA03014A
:1007600001F0004141F0FE4141F470014FF0000002
:1007700070BD41F0FE4141F4780170BD70B54FF09D
:10078000FF0C4CF4E06C1CEA11541DBF1CEA13551D
:1007900094EA0C0F95EA0C0F00F0A7F8A4EB0504FF
:1007A00081EA030E52EA03354FEA013100F08880F6
:1007B0004FEA03334FF0805545EA131343EA1263BF
:1007C0004FEA022245EA111545EA10654FEA002674
:1007D0000EF000419D4208BF964244F1FD0404F52D
:1007E000407402D25B084FEA3202B61A65EB030589
:1007F0005B084FEA32024FF480104FF4002CB6EB46
:10080000020E75EB030E22BFB61A754640EA0C00C5
:100810005B084FEA3202B6EB020E75EB030E22BF05
:10082000B61A754640EA5C005B084FEA3202B6EB46
:10083000020E75EB030E22BFB61A754640EA9C0005
:100840005B084FEA3202B6EB020E75EB030E22BFD5
:10085000B61A754640EADC0055EA060E18D04FEA93
:10086000051545EA16754FEA06164FEAC30343EA33
:1008700052734FEAC2025FEA1C1CC0D111F4801F00
:100880000BD141EA00014FF000004FF0004CB6E7F9
:1008900011F4801F04BF01430020B4F1FD0C88BF98
:1008A000BCF5E06F3FF6AFAEB5EB030C04BFB6EBA3
:1008B000020C5FEA500C50F1000041EB045170BD96
:1008C0000EF0004E4EEA113114EB5C04C2BFD4EBC3
:1008D0000C0541EA045170BD41F480114FF0000E47
:1008E000013C90E645EA060E8DE60CEA135594EAC3
:1008F0000C0F08BF95EA0C0F3FF43BAF94EA0C0FC6
:100900000AD150EA01347FF434AF95EA0C0F7FF43A
:1009100025AF104619462CE795EA0C0F06D152EA8E
:1009200003353FF4FDAE1046194622E750EA410672
:1009300018BF52EA43067FF4C5AE50EA41047FF483
:100940000DAF52EA43057FF4EBAE12E74FF0FF3CE8
:1009500006E000BF4FF0010C02E000BF4FF0010CB9
:100960004DF804CD4FEA410C7FEA6C5C4FEA430C32
:1009700018BF7FEA6C5C1BD001B050EA410C0CBF81
:1009800052EA430C91EA030F02BF90EA020F0020E3
:10099000704710F1000F91EA030F58BF994208BF4A
:1009A00090422CBFD8176FEAE37040F00100704707
:1009B0004FEA410C7FEA6C5C02D150EA013C07D15E
:1009C0004FEA430C7FEA6C5CD6D152EA033CD3D0A9
:1009D0005DF8040B704700BF8446104662468C46A3
:1009E0001946634600E000BF01B5FFF7B7FF0028D6
:1009F00048BF10F1000F01BD4DF808EDFFF7F4FFFF
:100A00000CBF012000205DF808FB00BF4DF808ED89
:100A1000FFF7EAFF34BF012000205DF808FB00BFAC
:100A20004DF808EDFFF7E0FF94BF012000205DF8CE
:100A300008FB00BF4DF808EDFFF7CEFF94BF012083
:100A400000205DF808FB00BF4DF808EDFFF7C4FF7C
:100A500034BF012000205DF808FB00BF4FEA4102CF
:100A600012F5001215D211D56FF47873B3EB625200
:100A700012D94FEAC12343F0004343EA505311F027
:100A8000004F23FA02F018BF404270474FF00000B9
:100A9000704750EA013005D111F0004008BF6FF0F7
:100AA000004070474FF00000704700BF4A0011D26D
:100AB00012F5001211D20DD56FF47873B3EB6252B8
:100AC0000ED44FEAC12343F0004343EA505323FAC4
:100AD00002F070474FF00000704750EA013002D139
:100AE0004FF0FF3070474FF00000704700000000EB
:100AF0002DE9F84300F0D9F800F096F9584D284652
:100B000000F02AFB002000F053F9012000F050F91A
:100B1000022000F04DF90121524800F080FA012135
:100B20004FF4A01000F07BFA01214F4800F077FA53
:100B30004E494FF480630B6008238B7100240C71C5
:100B400004234B710123CB71494800F007FC2D6849
:100B5000484BA3FB0535ED0C013DADB2464B1D8066
:100B600028E06000FFF776FC3BA3D3E90023FFF702
:100B7000DBFC0022414BFFF701FE41EC100B00F0C3
:100B80006FFD59EC108B6808FFF764FC06460F46B2
:100B900002460B4640464946FFF7C6FC02460B4656
:100BA00030463946FFF70AFBFFF780FF344B23F846
:100BB00014000134B4F5FA6FD3DB324E002229461B
:100BC000304600F051FC0021304600F054FC2E4D20
:100BD000284600F040FC07232B7001246C71EC7058
:100BE0006C70AC712C710027AF702A46042130461E
:100BF00000F046FCDFF88880B8F800200421304679
:100C000000F0C0FC22464FF48071304600F0CAFC70
:100C10001E4D284600F032FB1D494FF4FA634B810C
:100C200010230B81C1F80480CC734C73194B0B60FB
:100C30008C730F734C740C74284600F05EFB2146D5
:100C4000284600F055FB2146304600F0B7FC21460F
:100C5000304600F0FBFBFEE7182D4454FB21094011
:100C6000400000200B00180002001800680000205F
:100C70000008014083DE1B431010002000409F400D
:100C800070000020002C0140141000205800024089
:100C9000540000203C2C01407047FEE7FEE7FEE7D1
:100CA000FEE7704770477047704708B500F06EF96F
:100CB0000121084600F0D2F900F09EF90028FBD08F
:100CC00001222F21022000F009FA0121022000F068
:100CD000C5F9192000F07EF90128FAD1002000F0B2
:100CE000E5F9042000F0F2F9042000F0E7F9012012
:100CF00000F0B4FA022000F01FFA002301E000BF68
:100D00000133B3F57A7FFADB00F01EFA0228FBD13B
:100D1000002000F0A3FA00F0D1F808BD00B583B0C0
:100D200001210C4800F07BF9684600F074FB0123B8
:100D30008DF8073000228DF804208DF806200093EE
:100D400028238DF805306946034800F007FB03B0FF
:100D50005DF804FB020018000008014010B582B0E5
:100D6000044601210F4B53F8200000F058F9684663
:100D700000F051FB01238DF8073000238DF804307B
:100D800010238DF80630084B33F8143000930423F9
:100D90008DF805306946054B53F8240000F0DEFA63
:100DA00002B010BD000000200C0000201400002044
:100DB000022807D8044B33F810301BB1034A52F80D
:100DC00020205361704700BF0C0000201400002059
:100DD000022807D8044B33F810301BB1034A52F8ED
:100DE00020201361704700BF0C0000201400002079
:100DF00008B5042000F01AFB074B1B68074AA2FB4A
:100E000003239B0C064A136013684FF47A7202FBAB
:100E100003F3044A136008BD2000002083DE1B4357
:100E2000201000201C10002008B5FFF7E1FF002073
:100E3000FFF794FF0120FFF791FF0220FFF78EFFDD
:100E40000020FFF7C5FF0120FFF7C2FF0220FFF7D8
:100E5000BFFFFFF763FF08BD164AD2F8883043F49E
:100E60007003C2F88830144A136843F0010313601A
:100E7000114B1B6813F0020FFAD00F4B5A686FF337
:100E800001025A600C4B5B6813F00C0FFAD10A4B4D
:100E90001A6822F0867222F480321A6000225A60A8
:100EA0001A634FF41F029A60024B4FF000629A607F
:100EB000704700BF00ED00E00010024008B500F0F0
:100EC00043F9012818D0022824D018B1274B284A0A
:100ED0001A6014E0274B5B6D13F4007F08D0254B9C
:100EE0001B6B13F0007F03D0204B234A1A6006E0EF
:100EF0001E4B1F4A1A6002E01C4B204A1A601D4B11
:100F00005B68C3F303131E4AD15C184A1368CB40D5
:100F1000136008BD17494A68C2F300424B68C3F327
:100F200083434968C1F3417011F0C04F03D10F2BC7
:100F300001D0023302E003EB001301332AB9114A56
:100F400002FB03F3094A1360D9E70A4A526812F414
:100F5000003F05D00C4A02FB03F3044A1360CEE7BE
:100F6000064A02FB03F3014A1360C8E72000002091
:100F700000127A0000100240006CDC02001BB70077
:100F8000E829000800093D00808D5B00104A1368C5
:100F900043F0010313600E4B1B6813F0020FFAD0ED
:100FA0000B4B5A686FF301025A60094B5B6813F0F0
:100FB0000C0FFAD1064B1A6822F0867222F48032A6
:100FC0001A6000225A601A634FF41F029A60704739
:100FD00000100240030C03F1804303F504331A6848
:100FE00000F01F00012303FA00F030EA020301D0F1
:100FF000002070470120704710B500241120FFF732
:10100000E9FF012804D0B4F5A04F01D20134F5E77F
:101010001120FFF7DFFF012800D0002010BD0129BB
:101020000ED0030C03F1804303F504331A6800F07B
:101030001F00012101FA00F022EA00001860704749
:10104000030C03F1804303F504331A6800F01F001A
:1010500001FA00F01043186070470000042821D8FE
:10106000DFE800F003090F151B000F4B1A6861F34E
:1010700000021A6070470C4B1A6861F310421A6044
:101080007047094B1A6861F318621A607047064B83
:101090001A6A61F300021A627047034B5A6A61F3DD
:1010A00000025A62704700BF00100240024B5A68AB
:1010B00060F307125A60704700100240024B5A68F2
:1010C00060F30A225A60704700100240024B5A68CF
:1010D00060F3CD225A607047001002408446A0B9E8
:1010E000144B58686FF310405860124B586861F306
:1010F00095405860C1F30111586861F35E70586003
:10110000596862F3DF71596070470A48436843F4D5
:1011100080334360BCF1010F05D00648436843F4B7
:1011200000334360E1E7034640686FF35140586085
:10113000DBE700BF00100240024B5A6860F3010277
:101140005A60704700100240024B5868C0F381009B
:10115000704700BF0010024010B50446FFF7F4FFCF
:10116000012815D002283BD010B1324B236011E08A
:10117000314B5B6D13F4007F07D02F4B1B6B13F0CB
:10118000007F02D02D4B236004E02A4B236001E056
:101190002B4B236028494B68C3F30313294AD25CC5
:1011A0002368D34063604A68C2F302222648825C07
:1011B00023FA02F2E2604A68C2F3C2222348825C48
:1011C000D340A3604868C0F300704A68C2F381321C
:1011D00042EA80021E498A5CB3FBF2F3236110BD30
:1011E00015494A68C2F300424B68C3F38343496818
:1011F000C1F3417011F0C04F03D10F2B01D0023366
:1012000002E003EB0013013322B9124A02FB03F39D
:101210002360BFE7084A526812F4003F04D00E4A28
:1012200002FB03F32360B5E7054A02FB03F32360E7
:10123000B0E700BF00127A0000100240006CDC0230
:10124000001BB700102A0008002A0008082A00081E
:10125000F829000800093D00808D5B00012805D0B9
:10126000054B5A6D6FF305125A657047024A536D6C
:1012700043F03003536570470010024010B4036818
:101280006FF3000303600023036043608360C36067
:1012900040F2FF430340B3F5816F10D2114C6268F6
:1012A000C3B2083B1048A0FB03131B099B000F218E
:1012B00001FA03F3134363605DF8044B7047B3F521
:1012C000916FF9D2094C6268C3B2083B0648A0FB93
:1012D00003131B099B000F2101FA03F313436360FF
:1012E000EAE700BF00000240CDCCCCCC00040240B5
:1012F000036861F3000303607047036823F48043CD
:1013000023F010031B041B0C036003680A891343BA
:1013100003604A7C036862F30D330360CA7B036891
:1013200062F38B2303608A7B036862F30923036003
:101330004A7B036862F3C71303600A7B036862F3A6
:10134000861303600A7C036862F3451303604B89CC
:1013500043600B6883604B68C360704730B50A68B0
:101360001FFA82FE8B79032B18D063B94B7903F0F7
:101370000F01182B04D0282B11D193B243610EE03A
:10138000C0F810E00BE00D79CC7903F0080105F00E
:101390000403194304F00303194300E0002195B24C
:1013A00012F0FF0F1DD1BEF1FF0F33D94FEA1E2EF1
:1013B000002319E00133072BF5D845FA03F212F0A8
:1013C000010FF7D004689A004FF00F0C0CFA02FCE2
:1013D00024EA0C040460046801FA02F22243026069
:1013E000E8E70023E7E70133072B13D84EFA03F2AF
:1013F00012F0010FF7D044689A004FF00F0C0CFA6E
:1014000002FC24EA0C044460446801FA02F222431C
:101410004260E8E730BD4FF6FF730360002383713D
:101420000371042343710123C3717047042806D05C
:101430004FF0E022136923F00403136170474FF06B
:10144000E022136943F0040313617047036861F3FA
:101450000003036070470023037043708370C37000
:101460000371437183717047C1628262436943F0C3
:10147000010343617047036861F30613036070471B
:1014800030B5547801F1080304FA03F3947801F1BC
:101490000905AC403A4DA84203D005F50065A842C5
:1014A00007D14568A4B225EA0405456045682C4388
:1014B000446044689BB224EA0304446044682343C4
:1014C000436006290AD8DFE801F0040948094E09FB
:1014D00054001478836964F306138361D3784D0054
:1014E0006C1CA34092F804E0EC1C0EFA04FE244CA1
:1014F000A04203D004F50064A04208D11FFA8EFE7A
:10150000046A24EA0E0404624EEA040404629BB2F4
:10151000046A24EA030404622343036292F805C0C8
:101520000CFA05FC92790131490002FA01F1144AE2
:10153000904203D002F50062904205D189B223EABD
:10154000010303620B4303621FFA8CF3026A22EA6F
:10155000030202621343036230BD1478836964F3AB
:101560000E338361BAE71478C36964F30613C36169
:10157000B4E71478C36964F30E33C361AEE700BF08
:10158000002C014006290CD8DFE801F0040B060B03
:10159000080B0A004263704782637047C26370475A
:1015A00002647047012A05D01AB9C36823EA010111
:1015B000C1607047C3681943C1607047436C61F3F1
:1015C000CF33436470470000002103E00B4B5B58AE
:1015D000435004310A480B4B42189A42F6D30A4A48
:1015E00002E0002342F8043B084B9A42F9D3FFF78C
:1015F00033FC00F00FF8FFF77BFA7047002C00086F
:1016000000000020240000202400002024100020DE
:10161000FEE7000070B50D4D0D4C641BA4100026B4
:10162000A64209D10B4D0C4C01F0D0F9641BA4105B
:101630000026A64205D170BD55F8043B98470136F7
:10164000EEE755F8043B98470136F2E7F82B00081F
:10165000F82B0008F82B0008FC2B00080000000005
:1016600051EC100B204A21F00043934227DD00B5D6
:101670001E4A934285B009DD10EE102A0B46FEF794
:101680009BFD41EC100B05B05DF804FB684600F0D3
:101690002FF800F0030001289DED021B9DED000BCB
:1016A00012D0022817D090B100F04AFA53EC102B58
:1016B00003F1004300EE903A05B05DF804FB9FEDA6
:1016C000081B002000F0A4BF00F03AFADBE701207D
:1016D00000F09EFFD7E7012000F09AFFE6E700BF89
:1016E0000000000000000000FB21E93FFFFFEF7F4A
:1016F0002DE9F04F53EC102B2DED048B904923F086
:1017000000458D428BB0044640F38C808D498D425C
:101710001F462BDC002F194610EE100A7EA3D3E9DA
:10172000002340F3B681FEF747FD874B9D4280467C
:10173000894600F08F807AA3D3E90023FEF73CFDB1
:1017400002460B46C4E9002340464946FEF734FDF5
:1017500073A3D3E90023FEF72FFDC4E9020101269C
:1017600030460BB0BDEC048BBDE8F08F77498D425D
:1017700040F3928076498D4261DC2E15A6F2164622
:1017800010EE100AA5EB065190468946FFF766F960
:10179000FEF760FE02460B4640464946CDE904236B
:1017A000FEF70AFD6B4B0022FEF7BEFE894680461F
:1017B000FFF754F90546FEF74DFE02460B4640463C
:1017C0004946CDE90623FEF7F7FC624B0022FEF7FF
:1017D000ABFE02460B46CDE9082300220023FFF7AB
:1017E0000BF9002800F05381002D0CBF01230223C8
:1017F000594A0192022200922146324604A800F082
:10180000DFFA002F0646ABDA6168226801F1004377
:10181000E168C4E90023A26801F10043C4E902239E
:1018200046429DE7002000210026C4E9020130461F
:1018300084ED000B0BB0BDEC048BBDE8F08F10EE17
:10184000100A1946FEF7B8FC0026C4E90201C4E9F3
:10185000000185E734A3D3E90023FEF7ADFC34A3F0
:10186000D3E9002380468946FEF7A6FC02460B46D4
:10187000C4E9002340464946FEF79EFC2CA3D3E969
:101880000023FEF799FC0126C4E9020130460BB0A3
:10189000BDEC048BBDE8F08F00F078FF59EC108BA5
:1018A00010EE100A24A3D3E900234946FEF73CFEBC
:1018B0002A4B0022FEF782FCFFF7D0F80646FEF71F
:1018C000C9FD02460B4643EC182B13A3D3E90023B2
:1018D000B0EE489AF0EE689AFEF726FE02460B46F6
:1018E00040464946FEF768FC0DA3D3E90023824633
:1018F0008B4651EC180BFEF717FE1F2E41EC180B10
:1019000030DC174B721E53F82230AB422AD002460D
:101910000B469BE0AFF3008000004054FB21F93FF1
:101920003163621A61B4D03D0000601A61B4D03DE9
:101930007370032E8A19A33B83C8C96D305FE43FDF
:10194000FB21E93F7BD90240FB21F93FFB213941D3
:10195000FFFFEF7F00007041A02A00080000E03F79
:10196000202A00082B150393504653EC182B594698
:10197000FEF722FCC1F30A53C3EB1555102D804628
:10198000894669DD64A3D3E9002351EC190BFEF706
:10199000CBFD8046894642464B4650465946FEF7A7
:1019A0000BFC02460B465046594692469B46FEF7B4
:1019B00003FC42464B46FEF7FFFB59A3D3E9002345
:1019C0008046894651EC190BFEF7AEFD42464B4668
:1019D000FEF7F2FB02460B465046594643EC182BE5
:1019E000FEF7EAFB039AC1F30A53D31A312B804660
:1019F000894631DD4DA3D3E9002351EC190BFEF7E5
:101A000093FD8046894642464B4650465946FEF76E
:101A1000D3FB02460B465046594692469B46FEF77C
:101A2000CBFB42464B46FEF7C7FB42A3D3E900235C
:101A30008046894651EC190BFEF776FD42464B462F
:101A4000FEF7BAFB02460B4643EC182B50465946AC
:101A5000FEF7B2FB8046894642464B46C4E9008900
:101A600050465946FEF7A8FB53EC182BFEF7A4FB93
:101A7000002FC4E90201BFF673AE09F10043C4E9C7
:101A8000008301F10043C4E90203764268E60323C0
:101A9000AEE6FEF793FB244B9D428046894616D066
:101AA0001BA3D3E90023FEF789FB02460B46C4E9DA
:101AB000002340464946FEF77FFB15A3D3E90023E8
:101AC000FEF77CFB4FF0FF36C4E9020148E612A3A3
:101AD000D3E90023FEF772FB11A3D3E9002380466C
:101AE0008946FEF76BFB02460B46C4E900234046DD
:101AF0004946FEF761FB0AA3D3E90023FEF75EFB2C
:101B00004FF0FF36C4E902012AE600BFAFF30080C0
:101B10003163621A61B4D03D0000601A61B4D03DF7
:101B20007370032E8A19A33BFB21F93F0000002E9E
:101B30008A19A33BC14920259A837B390000000004
:101B40002DE9F84F57EC106B27F00049B9F1795F98
:101B50002DED048B5BEC11AB71DA10EE100A3946F7
:101B6000FEF77CFF002800F0F68032463B46304608
:101B70003946FEF7D9FC7CA3D3E9002304460D4681
:101B8000FEF7D2FC7AA3D3E90023FEF717FB224627
:101B90002B46FEF7C9FC78A3D3E90023FEF70CFB24
:101BA00022462B46FEF7C0FC75A3D3E90023FEF7BF
:101BB00005FB22462B46FEF7B7FC73A3D3E90023AF
:101BC000FEF7FAFA22462B46FEF7AEFC70A3D3E9E5
:101BD0000023FEF7F3FA22462B46FEF7A5FC41EC64
:101BE000180B714B002220462946FEF79DFC53EC52
:101BF000182B8046894620462946FEF795FC52461A
:101C00005B4604460D4630463946FEF78DFC0246DB
:101C10000B4620462946FEF7CFFA02460B464046C1
:101C20004946FEF7C9FA02460B4600205F49FEF717
:101C3000C3FABDEC048B41EC100BBDE8F88F10EE3D
:101C4000102A10EE100A3B463946FEF76DFC46A3FB
:101C5000D3E9002304460D46FEF766FC44A3D3E90E
:101C60000023FEF7ABFA22462B46FEF75DFC42A3AB
:101C7000D3E90023FEF7A0FA22462B46FEF754FCD8
:101C80003FA3D3E90023FEF799FA22462B46FEF73D
:101C90004BFC3DA3D3E90023FEF78EFA22462B46E8
:101CA000FEF742FC3AA3D3E90023FEF787FA2B465E
:101CB0002246FEF739FC3E4B994541EC180B90DD6E
:101CC0003C4B99453CDC0022A9F500133749002024
:101CD00090469946FEF770FA41EC190B324B002200
:101CE00020462946FEF720FC42464B46FEF764FAA2
:101CF00053EC182B8046894620462946FEF714FCF3
:101D000052465B4604460D4630463946FEF70CFC0B
:101D100002460B4620462946FEF74EFA02460B467F
:101D200040464946FEF748FA02460B4651EC190B6D
:101D3000FEF742FABDEC048B41EC100BBDE8F88FC6
:101D40009FED157BDFF87090B0EE479AF0EE679A42
:101D50004FF00008C2E7BDEC048B9FED110BBDE80E
:101D6000F88F00BFAFF30080D43888BEE9FAA8BD71
:101D7000C4B1B4BD9EEE213EAD529C804F7E923EDA
:101D80009015CB19A001FA3E7751C1166CC1563F90
:101D90004C5555555555A53F000000000000E73F44
:101DA000000000000000F03F0000E03F0000F03FB6
:101DB0003233D33F0000E93F0000D23F0000000073
:101DC0002DE9F04FADF5197D1C4608930B91BA4BE8
:101DD000A299049053F821100591631E12F1140F7B
:101DE0000393C0F24B83B549D31E81FB0301DB177C
:101DF000C3EBA10307930133A3EB8303DB00D318E9
:101E00000693079A039BD41A059AD6181AD401365A
:101E1000A39F264420AD4FF000084FF0000908E0D2
:101E200057F82400FEF716FB0134B442E5E802013E
:101E300008D0002CF4DA013440464946B442E5E8C3
:101E40000201F6D1059B002BC0F2C683089BDDF88A
:101E50000C9020AA02EBC30ADA000292059A1A44F7
:101E60000192049A0DF5E07B02EBC308039B002B63
:101E7000C0F2A781049E57460024002577E902237B
:101E8000F6E80201FEF750FB02460B4620462946C3
:101E9000FEF794F9464504460D46EFD1019B09F142
:101EA00001099945EBE802450AF1080ADED1049AD6
:101EB000029B1344059A01929B460BAB03EB8203F2
:101EC0000A930CAB03EB8203083B0993019A98AB8E
:101ED00003EBC203002A53E9284529DD0DF5E07A1A
:101EE0000AEBC2080DF13009754B00222046294645
:101EF000FEF71AFBFEF7B2FDFEF7ACFA714B0022BB
:101F000006460F46FEF710FB02460B4620462946C2
:101F1000FEF752F9FEF7A2FD78E9022349F8040B17
:101F200039463046FEF74AF9D04504460D46DBD126
:101F3000DDF8189045EC104B484600F0B5FC55EC28
:101F4000104B00224FF07F5310EE100A2946FEF787
:101F5000EBFA41EC100B00F023FC5B4B51EC100B47
:101F60000022FEF7E1FA02460B4620462946FEF71C
:101F700023F90D460446FEF771FD8046FEF76AFA26
:101F80000B46024629462046FEF716F94B46002B23
:101F900006460F4640F39A80019A511E0CAAC9F1D9
:101FA000180352F8212042FA03F000FA03F3D31A7F
:101FB000C9F117050CAA43FA05F5002D42F82130A6
:101FC000804400F38D800022002330463946FEF71E
:101FD00013FD002800F05982019B059A03F1FF3A96
:101FE000524510DC03F180430CAA013B0A9802EB36
:101FF0008303002253F80419834242EA0102F9D113
:10200000002A40F0E180059B0CAA013B52F82330E6
:10201000002B40F0D180099A012352F804190133B2
:102020000029FAD0019AD3180293531C9946019AB9
:1020300008990A449046079A02EB030A0AF1804A7B
:10204000A39A0AF1FF3A02EB8A0A20AA02EBC80817
:1020500070AA02EBC30301935AF8040FFEF7FAF9D2
:102060000B46039902460029C8E90023474608F1B8
:1020700008081EDB049E0024002501E077E9022306
:10208000F6E80201FEF750FA02460B4620462946C2
:10209000FEF794F85E4504460D46EFD1019BE3E858
:1020A00002450193029B09F101099945D4DD019391
:1020B0000CE700240025F1E7E82B0008ABAAAA2AC8
:1020C0000000703E00007041000020406BD1019B79
:1020D0000CAA013B52F82350ED15002D7FF773AF8A
:1020E000019B002B08F1010840F3CD810C9C002CD2
:1020F00051D1019B012B20D00CAB012253F8044F8E
:10210000002C4BD0531C0CA9C4F1807441F8224020
:102110000199994210DD0CAA0CA852F8232000EB7B
:10212000830300EB81006FF07F4100E01A688A1A98
:1021300043F8042B8342F9D10124069B002B0EDDCA
:10214000012B00F06C81022B09D1019B5A1E0CABB4
:102150000CA953F82230C3F3150341F82230022DA5
:102160007FF431AF32463B46B7490020FEF724F8F2
:1021700006460F46002C3FF426AF06989FEDAE0BA7
:1021800000F092FB3046394653EC102BFEF714F862
:1021900006460F4617E701230022B4E701990132F2
:1021A0008A42ABD1C9E7A94B0022FEF743FC0028C5
:1021B00040F05281054606E7019B013399460293A0
:1021C00035E70024002569E6069B0395A3F1180274
:1021D0000CABCDF81C8053F82A30069273B9019BE2
:1021E00003F18043023B0CA901EB830353F804196C
:1021F0000AF1FF3A183A0029F8D006929FED8E0BAB
:10220000069800F051FBBAF1000F55EC104BC0F2EC
:10221000D98170AB03EBCA0B0CAA0AF10103069338
:1022200002EB8306DFF828924FEACA0304930BF10E
:1022300008074FF0000856F8040DFEF70BF9224688
:102240002B46FEF771F94B4667E9020142462046EC
:102250002946FEF769F90CAB9E4204460D46EAD1C9
:1022600048ABCDE9013ADDF814A0BAF1000F4FF008
:1022700000092CDB72A3D3E90023DFF8D8815F4685
:1022800000260024002503E0B14510DBF8E8022316
:10229000F7E80201FEF748F902460B4620462946B8
:1022A000FDF78CFF0136B24504460D46ECDA019B82
:1022B000029A03EBC9034A45C3E90045ABF1080B99
:1022C00009F1010306D0BAF1000F9946D2DA0024D1
:1022D0000025ECE7A29BDDF808A0022B1EDC002BFA
:1022E00000F3098113D1049C019D08342C44002083
:1022F000002174E90223FDF761FFA542F9D1039B98
:1023000013B101F1004319460B9BC3E90001079B80
:1023100003F007000DF5197DBDE8F08FA29B032B9C
:10232000F5D1BAF1000F00F06981019A049BD3182E
:10233000D3E9004502EBCA0B7BE902672046294638
:1023400032463B46FDF73AFFA046A94604460D46F5
:1023500022462B4630463946FDF72EFF4B46424675
:10236000FDF72CFF019B5B45CBE90201CBE9004562
:10237000E2D1BAF1010F40F34181019A049B0AF1C5
:10238000005A0AF1FF3A13444FEACA01D3E9004563
:1023900001F1080A029192440DF5947B7AE90267F3
:1023A0002046294632463B46FDF708FFA046A9468F
:1023B00004460D4622462B4630463946FDF7FCFEC4
:1023C00042464B46FDF7FAFED345CAE90201CAE987
:1023D0000045E3D1029C019B10341C4403F110051D
:1023E0000020002174E90223FDF7E8FEA542F9D19F
:1023F000039B002B40F0BD800B9CC4E904010198B5
:10240000D0E90023C4E90023D0E90223C4E9022370
:10241000079B03F007000DF5197DBDE8F08F019BC8
:102420005A1E0CAB0CA953F82230C3F3160341F823
:10243000223094E6AFF30080000000000000F03F7F
:1024400000000040FB21F93F0000F03F0000E03FAA
:102450000000703EB02B0008019B002B08F1010822
:10246000C8BF02253FF742AE32463B4665490020D1
:10247000FDF7A2FE022506460F46A4E500216FF0F7
:1024800017030791BBE4002457E647EC106B069E48
:1024900003957042CDF81C8000F006FA55EC104B05
:1024A000594B10EE100A00222946FEF7C3FA002805
:1024B00055D0564B019F00221836204629460696D5
:1024C000FEF732F8FEF7CAFA0646FDF7C3FF4E4B99
:1024D0000022FEF729F80B46024629462046FDF762
:1024E0006BFEFEF7BBFA07F1010A0CAB43F82700BD
:1024F00043F82A6082E6019D069B002005EBC30499
:10250000002174E90223FDF759FEA542F9D1039B8E
:10251000002B47D10B9BC3E900010B4601990246F2
:10252000D1E90001FDF748FEBAF1000F0DDD4AAD1B
:102530000124F5E802230134FDF740FEA245F8DA54
:10254000039B13B101F1004319460B9BC3E9020140
:10255000079B03F007000DF5197DBDE8F08F2046BD
:102560002946FEF77BFA019B0CAA9A4642F8230003
:1025700044E6019E01F1004374680B993268F568E6
:10258000C1E9040304F10043C1E90023B26805F185
:102590000043C1E90223079B03F007000DF5197DF5
:1025A000BDE8F08F0B9A01F1004353600B4601998F
:1025B00010600246D1E90001FDF7FEFDBAF1000FFF
:1025C000B5DCBFE7A29B022B0ADC002B11DC7FF4F9
:1025D0009EAE0020002192E6089BDB00029366E499
:1025E000A29B032B7FF493AE48AB00200021019304
:1025F000FEE648AB00200021019388E7002000217F
:10260000F6E600BF0000F03F000070410000703EA1
:102610002DE9F04F55EC104B85B025F00043B3F198
:10262000795F8DED001B039007DA10EE100A294642
:10263000FEF714FA002800F0898022462B46204637
:102640002946FDF771FF06460F4632463B462046B7
:102650002946FDF769FF43A3D3E9002382468B4651
:1026600030463946FDF760FF40A3D3E90023FDF76C
:10267000A3FD32463B46FDF757FF3EA3D3E90023B7
:10268000FDF79CFD32463B46FDF74EFF3BA3D3E9E9
:102690000023FDF791FD32463B46FDF745FF39A388
:1026A000D3E90023FDF78AFD039B80468946ABB33F
:1026B000DDE900012A4B0022FDF736FF42464B467A
:1026C0008046894650465946FDF72EFF02460B4686
:1026D00040464946FDF770FD32463B46FDF724FF74
:1026E000DDE90023FDF768FD1BA3D3E900230646BF
:1026F0000F4650465946FDF717FF02460B46304637
:102700003946FDF75BFD02460B4620462946FDF79C
:1027100053FD41EC100B05B0BDE8F08F02460B46AF
:1027200030463946FDF700FF0BA3D3E90023FDF740
:1027300043FD52465B46FDF7F7FE22462B46FDF76A
:102740003DFD41EC100B05B0BDE8F08F45EC104BA2
:1027500005B0BDE8F08F00BF495555555555C53FEB
:102760000000E03F7CD5CF5A3AD9E53DEB9C2B8A5F
:10277000E6E55A3E7DFEB157E31DC73ED561C1195E
:10278000A0012A3FA6F810111111813F51EC100B46
:1027900010EE102A21F0004343EC102B704700BFCD
:1027A00051EC100BF8B5C1F30A53A3F2FF35132D0A
:1027B00010EE106A0C4630DC002D1EDB384F2F4126
:1027C00001EA070303432DD033A3D3E90023FDF728
:1027D000F5FC00220023FEF737F948B1002C04DA9B
:1027E0004FF4801343FA05F52C4424EA070400262D
:1027F0002346324643EC102BF8BD27A3D3E9002330
:10280000FDF7DCFC00220023FEF71EF90028EFD0C4
:10281000002C29DB00263446EAE7332D05DDB5F52B
:10282000806F19D041EC100BF8BDA3F213434FF0A9
:10283000FF37DF400742F5D017A3D3E90023FDF7A8
:10284000BDFC00220023FEF7FFF80028D0D0002CAA
:1028500013DB26EA0706CBE710EE102A0B46FDF73E
:10286000ADFC41EC100BF8BD24F000430D4A1E43B3
:10287000002E18BF14460026BAE7142D08D00123F5
:10288000C5F1340503FA05F5AE1928BFE418E0E7F1
:102890000134DEE7AFF300809C7500883CE4377EAE
:1028A000FFFF0F000000F0BF38B553EC102BC3F34F
:1028B0000A5104469C4689BB10EE101A23F0004CC6
:1028C0005CEA010129D0194600223D4B3D4D10EE36
:1028D000100AFDF729FEAC4202460B4616DB8C4679
:1028E000C1F30A513639214440F2FE70814221DCA5
:1028F000002947DC11F1350F34DA4CF250318C42AB
:1029000018DC002B26A1D1E9000144DB24A3D3E984
:102910000023FDF709FE41EC100B38BD40F2FF70BB
:102920008142E0D110EE100A1946FDF747FC41EC58
:10293000100B38BD002B1CA1D1E9000107DB1AA345
:10294000D3E90023FDF7F0FD41EC100B38BD18A1D1
:10295000D1E9000114A3D3E90023FDF7E5FD41EC23
:10296000100BF3E72CF0FF4C2CF4E00C36314CEA62
:102970000153104619460022134BFDF7D5FD41ECDB
:10298000100B38BD2CF0FF4C2CF4E00C4CEA01533A
:1029900043EC102B38BD08A1D1E90001B6E700BF18
:1029A00059F3F8C21F6EA5019C7500883CE4377E80
:1029B0009C7500883CE437FE59F3F8C21F6EA58170
:1029C00000005043B03CFFFF0000903CF8B500BF52
:1029D000F8BC08BC9E467047F8B500BFF8BC08BC00
:0429E0009E46704758
:1029E80000000000000000000102030406070809B7
:1029F80002040608020C081000000000010203048B
:102A080000000000010203040000000000000000B4
:102A18000102030406070809FB21F93FFB210940CD
:102A28007CD91240FB2119407A6A1F407CD9224088
:102A3800BBFD2540FB2129403A462C407A6A2F40AD
:102A48005C4731407CD932409C6B3440BBFD3540FB
:102A5800DB8F3740FB2139401BB43A403A463C40B3
:102A68005AD83D407A6A3F404C7E40405C474140DE
:102A78006C1042407CD942408CA243409C6B44403D
:102A8800AC344540BBFD4540CBC64640DB8F474094
:102A9800EB584840FB21494083F9A200444E6E00A0
:102AA800FC291500D1572700DD34F50062DBC00092
:102AB8003C999500419043006351FE00BBDEAB009A
:102AC800B761C5003A6E2400D24D42004906E000C5
:102AD80009EA2E001C92D100EB1DFE0029B11C0052
:102AE800E83EA700F535820044BB2E009CE984002F
:102AF800B4267000417E5F00D691390053833900B7
:102B08009CF439008B5F840028F9BD00F81F3B0056
:102B1800DEFF97000F980500112FEF000A5A8B006F
:102B28006D1F6D00CF7E360009CB2700464FB700DA
:102B38009E663F002DEA5F00BA277500E5EBC700E7
:102B48003D7BF100F739070092528A00FB6BEA00DF
:102B58001FB15F00085D8D00300356007BFC460006
:102B6800F0AB6B0020BCCF0036F49A00E3A91D003F
:102B78005E619100081BE60085996500A0145F005E
:102B88008D40680080D8FF0027734D00060631008D
:102B9800CA561500C9A873007BE260006B8CC000A0
:102BA80000000040FB21F93F000000002D44743E66
:102BB800000000809846F83C0000006051CC783B4B
:102BC80000000080831BF0390000004020257A387F
:102BD800000000802282E336000000001DF3693502
:102BE80002000000030000000400000006000000CE
:042BF800950100083B
:042BFC00710100085B
:102C00000200180002001800020018000100020073
:102C100004000000000801400008014000080140D5
:042C200000127A0024
:04000005080015C911
:00000001FF
